:020000040000fa
:080000000002040000000000f2
:020000040000fa
:100400006f852000807f240000018800000000002c
:10041000050007000c000700e202020000000000d7
:100420000040da000000fe004440a90080042000e3
:100430000000e0000300320000002000a00188005e
:100440004440a80000000600609420000100200045
:100450001600370062004000e080480091018800eb
:100460009001ba0062004000e080480091018800dd
:100470009002ba0062004000e08048000002eb00f9
:100480006028e10005003a008301e900070033001d
:10049000038009000059eb00040037006128e100e7
:1004a000010032000082eb00050007009101880086
:1004b0001001ba000200e000e6ff3a00000005006b
:1004c000910188008002780062004000e0804800ce
:1004d0003559ba008301e900080032002559ba00f5
:1004e0008301e900050032000400e000f4ff32005f
:1004f00015d9ba008301e900f1ff3a0000000600b7
:1005000080007800010037000000e8001004e000df
:10051000fdff3a0001005000000006000200070045
:100520000400be00000006006022b80006022000a1
:100530000000d0008180d2000482d2008582d200e7
:100540000000a0000202520083825a0003003b0018
:100550000202420083824a000000a1000603e90073
:10056000f3ff3a00000006000200fa00004f780096
:100570000000eb00104088001e80fb004013880044
:10058000104080000000e000fdff32000080fa0013
:10059000000006000000fa000000eb001040880098
:1005a0000000eb0040138800104080000000e000d5
:1005b000fdff320004c8bf000080fb000080fa008d
:1005c000000006002c00fa00881f7800a800070031
:1005d0000000eb00001688000000eb0010168800f9
:1005e000000f2000f01688001005200090168800eb
:1005f00000022000a01688000000eb00c016880052
:100600000000eb00d01688001000200000178800c2
:10061000e582a900e5e2a900803e200079000700fc
:10062000e202a900a000200076000700e202a80074
:10063000e9e2a800e982a8000000eb001040880071
:100640000000eb00000f78002002a900012220002a
:100650009140780090cfb30000c0600020e2b70066
:1006600020a2a9002062a800f019200040118800f3
:1006700021e2a8002342a800b0c1b3005400070043
:1006800000c4b30052000700b0c1b300500007001f
:10069000d0c4b3004e0007000040eb004c00070040
:1006a000e40047002092280011000900b0587800ab
:1006b0002101b1002001b100a0c0b3004400070037
:1006c0000000eb00100798000500370000c2b300df
:1006d0003f0007001e0090000000e800100798008f
:1006e0001e009000e70f5000f8ff34000000eb0000
:1006f00010079800080037009e0090006400470033
:100700000080400010407800310007001e0090007b
:100710000000e800100798001e04900064004700e5
:1007200077ff0700800f5400f3ff39000000eb0053
:100730001007980005003700a0c0b3002400070090
:100740001e0090000000e800100798001e009000b6
:10075000e40f5000f8ff340000003700d4c2bf009f
:10076000614060000004e00004003a00d4c2bf0011
:100770000044b2000004e000f8ff3a00d4c2bf0019
:10078000614060000004e000070032001e00e0004d
:1007900005003a0054000700010107001000200086
:1007a000000f7800edff3700d4c2bf000044b20054
:1007b0000004e000e9ff3a00f9000700d4c2bf00de
:1007c0000044b2000004e000fcff3200e3ff370009
:1007d0000200fa00004f78004006200009000700e0
:1007e00023c2bf00614060000004e000fcff320053
:1007f0001e4078000080fb00201188000080fa0075
:10080000000006000800fa00300798000000eb0026
:1008100020079800100037000000eb001007980038
:1008200006003700ae0090001e009000008f4000d0
:100830001e0090000000e800100798009e00900045
:100840003e009000808f5000f6ff35002e00900093
:100850000000e80020079800ae0090003e009000e5
:10086000808f5000ecff35000080fa000000060089
:100870000000fa006382a9006362a9006342a90034
:100880006322a9006302a90062c2a90062a2a800b3
:1008900062c2bf003040b30062e2b70062c2bf0074
:1008a000c041b30062e2b70060c2a90061e2a800e3
:1008b0008820a9009820a8000080fa000000060007
:1008c0000000fa00e982a90070cdb30026ff0700fe
:1008d00030ff07000004e000fdff3d00e982a800b2
:1008e0000080fa00000006000800fa00e982a90072
:1008f00040c8b3001cff07000040eb001aff0700d0
:100900000040eb0018ff07000040eb0016ff070057
:100910000000eb00300798005e0037003e009000ba
:100920007f0060002016880040062000b5ff070009
:100930006000b800008fbe000000eb0020079800a8
:100940003e0037002e009000614060006140600072
:1009500000414000612d200091407800d0cfb300cd
:1009600000c0600002407000d6e2b7002e00900088
:100970000080d100614060006140600000404000a4
:1009800000414000612d200091407800b0cfb300bd
:1009900000c0600002407000d6e2b7002e00900058
:1009a0004280de0061406000614060000040400025
:1009b0000040400000414000612d2000914078003f
:1009c00070cfb30000c0600002407000d6e2b700f4
:1009d000400620008bff0700001780004400de0067
:1009e000010020006f0060008000eb001e1f7000ff
:1009f0001e9770004006200082ff07002e00900026
:100a0000e60f50000a003c001e00be00000040003f
:100a100081804800000040008180480000004000c4
:100a2000818048000000400081804800008fbe00a7
:100a30002e0090000000e800200798002e00900093
:100a4000e70f5000bfff34001e00be004808de0064
:100a500001002000c4fe07001e00be004008de00aa
:100a600001002000c0fe07001e00be004809dd0096
:100a70004800de0000007100c808de00bafe070072
:100a80001e007800b8fe07003e0090000000e8005d
:100a9000300798003e009000f30f50009fff340095
:100aa000e982a800a000200056ff0700e982a90003
:100ab00030c8b300acfe07000040eb00aafe070000
:100ac0000040eb00a8fe07000040eb00a6fe070078
:100ad000e982a8007aff07000080fa000000060003
:100ae0000400fa00881f7800e982a90020cdb30035
:100af0009dfe07000040eb009bfe07000040eb005e
:100b000099fe07000040eb0097fe07000040eb0055
:100b100095fe07000040eb0093fe07000040eb004d
:100b200091fe07000040eb008ffe07000000eb0085
:100b300010079800130037000000eb00000f78004a
:100b40000a0037001e009000000040000000400036
:100b50001e0440008ffe0700804078005080200077
:100b600000004400014878001e0fe800300020001b
:100b70009e0f1000f3ff34001e0090000000e800fc
:100b8000100798001e009000f30f5000eaff340099
:100b9000e982a8004f0478000080fa0000000600f7
:100ba0002a00fa00881f7800f500470040932800cb
:100bb00007000900b05878008100b1008000b10042
:100bc000fd004700c093280009000900b0587800d4
:100bd000a100b100a000b100c1ff0700a0c0b30098
:100be000fbfe07000000eb004007980005003700ff
:100bf00000c2b300f6fe07004e0090000000e800bf
:100c0000400798004e009000e70f5000f8ff3400b6
:100c10000000eb004007980007003700ce0090006e
:100c20007500470061407800e9fe07004e00900023
:100c30000000e800400798004e049000750047004f
:100c40002ffe0700800f5400f4ff39000000eb0076
:100c5000400798000500370000c2b300dcfe070023
:100c60004e0090000000e800400798004e00900001
:100c7000e90f5000f8ff34000000eb004007980037
:100c800007003700ce0090007d00470061407800eb
:100c9000cffe07004e0090000000e80040079800db
:100ca0004e0490007d00470015fe0700800f5400a1
:100cb000f4ff3900a0c0b300c5fe07000000eb0040
:100cc000400798000500370000c2b300c0fe0700cf
:100cd0004e0090000000e800400798004e00900091
:100ce000e70f5000f8ff34000000eb0040079800c9
:100cf00005003700d0c2b300b5fe07004e009000db
:100d00000000e800400798004e009000fa0f5000e5
:100d1000f8ff3400a0c0b300adfe07000000eb00f8
:100d200040079800250137000000eb0020079800dd
:100d300008003700ae0090006a0047008080400045
:100d40000040eb00804878002e0090000000e80092
:100d5000200798002e009000e10f5000f5ff3400ae
:100d600010002000200798004e0090000000e800ce
:100d7000cf80de00008fbe00110037002e049000ef
:100d80001e00be00a200200003002000e3fd0700bb
:100d9000804078006a004700000044000148780065
:100da0002e0090000000e900200798001e00be0001
:100db000a200200003002000dbfd0700008fbe0022
:100dc0001e00be00e00f5000e08f5800ebff3a001d
:100dd0000000eb00300798000500370000c2b300a8
:100de0007bfe07003e0090000000e80030079800fe
:100df0003e009000e90f5000f8ff34004e009000d4
:100e0000e80f500007003c006a00470010409000c7
:100e10000043b0006efe070000c2b3006cfe070086
:100e2000080037006a004700104078000043b00017
:100e300067fe07006a004700104090000043b000c2
:100e400063fe07000000eb00300798000500370044
:100e500000c2b3005efe07003e0090000000e80004
:100e6000300798003e009000e70f5000f8ff340074
:100e7000a000200063fe07004e009000000040002c
:100e8000000040008000780050802000008040007a
:100e9000104078000080fb0001002000008fbe00a1
:100ea0001e00be000000400081804800000040009d
:100eb0008180480000004000818048000000400020
:100ec0008180480000004000818048000000400010
:100ed0008180480000004000818048000000400000
:100ee00081804800008fbe004e009000000040004e
:100ef000000040008000e80050802000008040009a
:100f0000104078000080fb00010020001e1f7000d0
:100f10001e9770001e00be00000040008180480047
:100f200000004000818048000000400081804800af
:100f3000000040008180480000004000818048009f
:100f4000000040008180480000004000818048008f
:100f50000000400081804800008fbe004e009000dd
:100f600000004000000040008080e8005080200029
:100f700000804000104078000080fb00010020004d
:100f80001e1f70001e9770001e00be000000400073
:100f9000818048000000400081804800000040003f
:100fa000818048000000400081804800000040002f
:100fb000818048000000400081804800000040001f
:100fc000818048000000400081804800008fbe0002
:100fd0004e0090000000400000004000e300400090
:100fe0005080200000804000104078000080fb000e
:100ff000010020001e1f70001e9770000000eb0013
:101000002007980008003700ae0090006a004700f3
:10101000808040000040eb00804878002e00900067
:101020000000e800200798002e009000ea0f500012
:10103000f5ff3400a0002000200798001e00be002d
:10104000e00f5000e08f58001d003a000000eb0058
:10105000200798000500370000c2b300dcfd070040
:101060002e0090000000e800200798002e0090005d
:10107000ea0f5000f8ff34004b0037002e049000b8
:101080001e00be00a20020000300200023fd070078
:10109000804078006a004700000044000148780062
:1010a0002e0090000000e900200798001e00be00fe
:1010b000a2002000030020001bfd0700008fbe00df
:1010c0001e00be00e00f5000e08f5800ebff3a001a
:1010d0000000eb00200798000200370000c2b300b8
:1010e000bbfd0700ae0090006a0047000080400092
:1010f000104078008040eb00016f98000004e00091
:1011000002003a0010c0b300006f98002e0090005b
:101110000000e800200798008e6890000104e000bd
:10112000eeff3a002e0090000000e9002007980032
:1011300009003700ae0090006a00470000804000c0
:10114000104078000043b000a1fd07002e00900081
:101150000000e800200798002e009000e80f5000e3
:10116000f4ff3400e0c2b30099fd070090002000b6
:101170002007980009003700ae0090006a00470081
:1011800000804000104078000043b00090fd070050
:101190002e0090000000e800200798002e0090002c
:1011a000ea0f5000f4ff3400a0c0b30088fd070030
:1011b0004e0090000000e800400798004e009000ac
:1011c000f30f5000d8fe3400b0c1b30080fd07001b
:1011d00040c6b3007efd0700a0c0b3007cfd070041
:1011e000d0c1b3007afd070060c5b30078fd0700e9
:1011f00010c0b30076fd07004f0478000080fa00ad
:1012000000000600801f78003400f80000c0b30022
:10121000a00188000000fa009820a9004013800077
:1012200004e8b70010002000104088008820a900c2
:101230009820a8000080fa003400f9004f007800e0
:041240000040060064
:020000040000fa
:0200000401f009
:04000000ffff0000fe
:020000040000fa
:0200000401f009
:04000400ffff0000fa
:020000040000fa
:0200000401f009
:04000800ffff0000f6
:020000040000fa
:0200000401f009
:04000c0022ff0000cf
:020000040000fa
:0200000401f009
:0400100085ff000068
:020000040000fa
:0200000401f009
:040014005fff00008a
:020000040000fa
:0200000401f009
:04001800e1ff000004
:020000040000fa
:100008004e0900004e0900004e0900004e0900008c
:100018004e0900004e0900004e0900004e0900007c
:100028004e0900004e0900004e0900004e0900006c
:100038004e0900004e0900004e0900004e0900005c
:100048004e0900004e0900004e0900004e0900004c
:100058004e0900004e0900004e0900004e0900003c
:100068004e0900004e0900004e0900004e0900002c
:100078004e0900004e0900004e0900004e0900001c
:100088004e0900004e0900004e0900004e0900000c
:100098004e0900004e0900004e0900004e090000fc
:1000a8004e090000020900004e0900004e09000038
:1000b8004e0900004e0900004e0900004e090000dc
:1000c8004e0900004e0900004e0900004e090000cc
:1000d8004e0900004e0900004e0900004e090000bc
:1000e8004e0900004e0900004e0900004e090000ac
:1000f8004e0900004e0900004e0900004e0900009c
:100108004e0900004e0900004e0900004e0900008b
:100118004e0900004e0900004e0900004e0900007b
:100128004e0900004e0900004e0900004e0900006b
:100138004e0900004e0900004e0900004e0900005b
:100148004e0900004e0900004e0900004e0900004b
:100158004e0900004e0900004e0900004e0900003b
:100168004e0900004e0900004e0900004e0900002b
:100178004e0900004e0900004e0900004e0900001b
:100188004e0900004e0900004e0900004e0900000b
:100198004e0900004e0900004e0900004e090000fb
:1001a8004e0900004e0900004e0900004e090000eb
:1001b8004e0900004e0900004e0900004e090000db
:1001c8004e0900004e0900004e0900004e090000cb
:1001d8004e0900004e0900004e0900004e090000bb
:1001e8004e0900004e0900004e0900004e090000ab
:0801f8004e0900004e09000051
:020000040000fa
:100208004e0900004e0900004e0900004e0900008a
:100218004e0900004e0900004e0900004e0900007a
:100228004e0900004e0900004e0900004e0900006a
:100238004e0900004e0900004e0900004e0900005a
:100248004e0900004e0900004e0900004e0900004a
:100258004e0900004e0900004e0900004e0900003a
:100268004e0900004e0900004e0900004e0900002a
:100278004e0900004e0900004e0900004e0900001a
:100288004e0900004e0900004e0900004e0900000a
:100298004e0900004e0900004e0900004e090000fa
:1002a8004e090000020900004e0900004e09000036
:1002b8004e0900004e0900004e0900004e090000da
:1002c8004e0900004e0900004e0900004e090000ca
:1002d8004e0900004e0900004e0900004e090000ba
:1002e8004e0900004e0900004e0900004e090000aa
:1002f8004e0900004e0900004e0900004e0900009a
:100308004e0900004e0900004e0900004e09000089
:100318004e0900004e0900004e0900004e09000079
:100328004e0900004e0900004e0900004e09000069
:100338004e0900004e0900004e0900004e09000059
:100348004e0900004e0900004e0900004e09000049
:100358004e0900004e0900004e0900004e09000039
:100368004e0900004e0900004e0900004e09000029
:100378004e0900004e0900004e0900004e09000019
:100388004e0900004e0900004e0900004e09000009
:100398004e0900004e0900004e0900004e090000f9
:1003a8004e0900004e0900004e0900004e090000e9
:1003b8004e0900004e0900004e0900004e090000d9
:1003c8004e0900004e0900004e0900004e090000c9
:1003d8004e0900004e0900004e0900004e090000b9
:1003e8004e0900004e0900004e0900004e090000a9
:0803f8004e0900004e0900004f
:020000040000fa
:101244002d2d00002d2d00002d20000052650000e2
:1012540061640000792000002d2d00002d2d000078
:101264002d00000043680000616e00006e65000000
:101274006c000000546900006d6500002028000027
:08128400757300002900000051
:020000040000fa
:10128c0000080000560000000000000000000000f4
:020000040000fa
:04129c000000fe0050
:00000001FF
