:020000040000fa
:080000000002040000000000f2
:020000040000fa
:100400000f802000807f2400000188000000000091
:10041000050007000c000700800202000000000039
:100420000040da000000fe004440a9000000200067
:100430000000e0000300320000002000a00188005e
:100440004440a80000000600802f2000010020008a
:100450001600370062004000e080480091018800eb
:100460009001ba0062004000e080480091018800dd
:100470009002ba0062004000e08048000002eb00f9
:100480006028e10005003a008301e900070033001d
:10049000038009000059eb00040037006128e100e7
:1004a000010032000082eb00050007009101880086
:1004b0001001ba000200e000e6ff3a00000005006b
:1004c000910188008002780062004000e0804800ce
:1004d0003559ba008301e900080032002559ba00f5
:1004e0008301e900050032000400e000f4ff32005f
:1004f00015d9ba008301e900f1ff3a0000000600b7
:100500000400fa0000002f00901688000000eb00a5
:10051000a01688000000eb00a01688000000eb0089
:100520001007980004003700130007001e00900019
:100530000000e800100798001e009000e90f50002e
:10054000f9ff36000080eb00a01688000000eb00e9
:100550001007980004003700070007001e009000f5
:100560000000e800100798001e009000e90f5000fe
:10057000f9ff3600e7ff37000400fa006000b8001a
:10058000008fbe0004003700100020000100200092
:100590001e0f40005e974800f0342c000100200040
:1005a000be0f1000ae8f1800f7ff36000080fa0073
:1005b000000006000400fa006000b800008fbe00d2
:1005c0000400370010002000010020001e0f400032
:1005d0005e974800f069280011002000be0f10004f
:1005e000ae8f1800f7ff36000080fa00000006000a
:020000040000fa
:10000800fa020000fa020000fa020000fa020000f8
:10001800fa020000fa020000fa020000fa020000e8
:10002800fa020000fa020000fa020000fa020000d8
:10003800fa020000fa020000fa020000fa020000c8
:020000040000fa
:020000040000fa
:0405f0000000000007
:020000040000fa
:0405f4000000fe0005
:00000001FF
