:020000040000fa
:080000000002040000000000f2
:020000040000fa
:100400002f802000007f24000001880000000000f1
:100410000a00070011000700000020000000e000b3
:10042000020032000000020000000000e0020200b2
:10043000000000000040da000000fe004440a90077
:10044000000020000000e000030032000000200057
:10045000a00188004440a80000000600203f2000c2
:10046000010020001500370062004000e0804800d5
:10047000910188009001ba0062004000e0804800cd
:10048000910188009002ba0062004000e0804800bc
:100490000002eb006028e10004003a000059eb0084
:1004a0008301e900fdff3e00040037006128e10000
:1004b000010032000082eb00050007009101880076
:1004c0001001ba000200e000e7ff3a00000005005a
:1004d000910188008002780062004000e0804800be
:1004e0003559ba008301e900080032002559ba00e5
:1004f0008301e900050032000400e000f4ff32004f
:1005000015d9ba008301e900f1ff3a0000000600a6
:020000040000fa
:10000800fa030000fa030000fa030000fa030000f4
:10001800fa030000fa030000fa030000fa030000e4
:10002800fa030000fa030000fa030000fa030000d4
:10003800fa030000fa030000fa030000fa030000c4
:10004800fa030000fa030000fa030000fa030000b4
:10005800fa030000be020000fa030000fa030000e1
:10006800fa030000fa030000fa030000fa03000094
:10007800fa030000fa030000fa030000fa03000084
:10008800fa030000fa030000fa030000fa03000074
:10009800fa030000fa030000fa030000fa03000064
:1000a800fa030000fa030000fa030000fa03000054
:1000b800fa030000fa030000fa030000fa03000044
:1000c800fa030000fa030000fa030000fa03000034
:1000d800fa030000fa030000fa030000fa03000024
:1000e800fa030000fa030000fa030000fa03000014
:1000f800fa030000fa030000fa030000fa03000004
:10010800fa030000fa030000fa030000fa030000f3
:10011800fa030000fa030000fa030000fa030000e3
:10012800fa030000fa030000fa030000fa030000d3
:10013800fa030000fa030000fa030000fa030000c3
:10014800fa030000fa030000fa030000fa030000b3
:10015800fa030000fa030000fa030000fa030000a3
:10016800fa030000fa030000fa030000fa03000093
:10017800fa030000fa030000fa030000fa03000083
:10018800fa030000fa030000fa030000fa03000073
:10019800fa030000fa030000fa030000fa03000063
:1001a800fa030000fa030000fa030000fa03000053
:1001b800fa030000fa030000fa030000fa03000043
:1001c800fa030000fa030000fa030000fa03000033
:1001d800fa030000fa030000fa030000fa03000023
:1001e800fa030000fa030000fa030000fa03000013
:0801f800fa030000fa03000005
:020000040000fa
:10020800fa030000fa030000fa030000fa030000f2
:10021800fa030000fa030000fa030000fa030000e2
:10022800fa030000fa030000fa030000fa030000d2
:10023800fa030000fa030000fa030000fa030000c2
:10024800fa030000fa030000fa030000fa030000b2
:10025800fa030000be020000fa030000fa030000df
:10026800fa030000fa030000fa030000fa03000092
:10027800fa030000fa030000fa030000fa03000082
:10028800fa030000fa030000fa030000fa03000072
:10029800fa030000fa030000fa030000fa03000062
:1002a800fa030000fa030000fa030000fa03000052
:1002b800fa030000fa030000fa030000fa03000042
:1002c800fa030000fa030000fa030000fa03000032
:1002d800fa030000fa030000fa030000fa03000022
:1002e800fa030000fa030000fa030000fa03000012
:1002f800fa030000fa030000fa030000fa03000002
:10030800fa030000fa030000fa030000fa030000f1
:10031800fa030000fa030000fa030000fa030000e1
:10032800fa030000fa030000fa030000fa030000d1
:10033800fa030000fa030000fa030000fa030000c1
:10034800fa030000fa030000fa030000fa030000b1
:10035800fa030000fa030000fa030000fa030000a1
:10036800fa030000fa030000fa030000fa03000091
:10037800fa030000fa030000fa030000fa03000081
:10038800fa030000fa030000fa030000fa03000071
:10039800fa030000fa030000fa030000fa03000061
:1003a800fa030000fa030000fa030000fa03000051
:1003b800fa030000fa030000fa030000fa03000041
:1003c800fa030000fa030000fa030000fa03000031
:1003d800fa030000fa030000fa030000fa03000021
:1003e800fa030000fa030000fa030000fa03000011
:0803f800fa030000fa03000003
:020000040000fa
:100510000000fa00f0f32f0060198800000e2000a0
:1005200000198800000c20008019880020f02100ac
:10053000201988000000eb001019880021e3a800b2
:100540000080fa00000006000200fa00000f7800a8
:100550001e007800401988002023a80020c3bf0097
:10056000614060000004e000fcff32002023a9008d
:10057000001880000080fa000000060000a0fe00c5
:100580003600f800849fbe00869fbe003400f8004d
:1005900004c0b300a40188000000fa006004200039
:1005a0003c0007000080fa003400f9004f03be0051
:1005b0004f02be003600f9000080fe000040060039
:1005c0000600fa000000eb00001788000000eb00b6
:1005d00040168800740007001100070040c0b300f7
:1005e00036000700004f7800160007001e00fb00d1
:1005f000280007000000eb00101788000080eb00c7
:10060000501688000f0007000080eb0010178800cc
:100610000000eb00501688000a000700efff3700cb
:100620000000fa00c0002000c015880080002800eb
:100630008015880000402000901588000080fa0096
:10064000000006000400fa000000eb00100798000c
:100650000a0037000000eb00000f780001003700af
:100660001e0fe800900020009e0f1000fcff3400d9
:100670001e0090000000e800100798009e00900007
:10068000301f2000808f5000f2ff34000080fa00fd
:10069000000006000200fa00004f7800b3c2bf005d
:1006a000624060000004e000fcff3a001e80fb0096
:1006b000a01588000080fa00000006000800fa007b
:1006c000004f78001e80fb00200798002e0090004d
:1006d000e20f5000160032002e009000e20f500092
:1006e00004003c002e009000e10f50000800320092
:1006f000270037002e009000e30f50001400320056
:100700002e009000e40f5000190032002000370046
:1007100022c2bf00614060000004e000fcff320024
:10072000301180000000fb0010079800190037000e
:1007300032c2bf00614060000004e000fcff3200f4
:10074000b01180000000fb00100798001100370076
:1007500052c2bf00614060000004e000fcff3200b4
:10076000b01280000000fb0010079800090037005d
:10077000b2c2bf00614060000004e000fcff320034
:10078000b01580000000fb00100798000100370042
:10079000020037001e009000300798003e009000d5
:1007a0000080fa00000006000000fa00616b2000e3
:1007b0009140780000ccb30000c06000b041b300ad
:1007c000b6e6b700316d20009140780000ccb30050
:1007d00000c06000e041b300d3e6b7000080fa003b
:0407e000000006000f
:020000040000fa
:1007e40000080000020000000000000000000000fb
:020000040000fa
:0407f4000000fe0003
:00000001FF
