:020000040000fa
:080000000002040000000000f2
:020000040000fa
:100400002f862000007f24000001880000000000eb
:100410000a00070011000700000020000000e000b3
:100420000200320000000200000000004003020051
:10043000000000000040da000000fe004440a90077
:10044000000020000000e000030032000000200057
:10045000a00188004440a80000000600204e2000b3
:10046000010020001500370062004000e0804800d5
:10047000910188009001ba0062004000e0804800cd
:10048000910188009002ba0062004000e0804800bc
:100490000002eb006028e10004003a000059eb0084
:1004a0008301e900fdff3e00040037006128e10000
:1004b000010032000082eb00050007009101880076
:1004c0001001ba000200e000e7ff3a00000005005a
:1004d000910188008002780062004000e0804800be
:1004e0003559ba008301e900080032002559ba00e5
:1004f0008301e900050032000400e000f4ff32004f
:1005000015d9ba008301e900f1ff3a0000000600a6
:020000040000fa
:100008001e0500001e0500001e0500001e0500005c
:100018001e0500001e0500001e0500001e0500004c
:100028001e0500001e0500001e0500001e0500003c
:100038001e0500001e0500001e0500001e0500002c
:100048001e0500001e0500001e0500001e0500001c
:100058001e050000aa0400001e0500001e05000081
:100068001e0500001e0500001e0500001e050000fc
:100078001e0500001e0500001e0500001e050000ec
:100088001e0500001e0500001e0500001e050000dc
:100098001e0500001e0500001e0500001e050000cc
:1000a8001e0500001e0500001e0500001e050000bc
:1000b8001e0500001e0500001e0500001e050000ac
:1000c8001e0500001e0500001e0500001e0500009c
:1000d8001e0500001e0500001e0500001e0500008c
:1000e8001e0500001e0500001e0500001e0500007c
:1000f8001e0500001e0500001e0500001e0500006c
:100108001e0500001e0500001e0500001e0500005b
:100118001e0500001e0500001e0500001e0500004b
:100128001e0500001e0500001e0500001e0500003b
:100138001e0500001e0500001e0500001e0500002b
:100148001e0500001e0500001e0500001e0500001b
:100158001e0500001e0500001e0500001e0500000b
:100168001e0500001e0500001e0500001e050000fb
:100178001e0500001e0500001e0500001e050000eb
:100188001e0500001e0500001e0500001e050000db
:100198001e0500001e0500001e0500001e050000cb
:1001a8001e0500001e0500001e0500001e050000bb
:1001b8001e0500001e0500001e0500001e050000ab
:1001c8001e0500001e0500001e0500001e0500009b
:1001d8001e0500001e0500001e0500001e0500008b
:1001e8001e0500001e0500001e0500001e0500007b
:0801f8001e0500001e050000b9
:020000040000fa
:100208001e0500001e0500001e0500001e0500005a
:100218001e0500001e0500001e0500001e0500004a
:100228001e0500001e0500001e0500001e0500003a
:100238001e0500001e0500001e0500001e0500002a
:100248001e0500001e0500001e0500001e0500001a
:100258001e050000aa0400001e0500001e0500007f
:100268001e0500001e0500001e0500001e050000fa
:100278001e0500001e0500001e0500001e050000ea
:100288001e0500001e0500001e0500001e050000da
:100298001e0500001e0500001e0500001e050000ca
:1002a8001e0500001e0500001e0500001e050000ba
:1002b8001e0500001e0500001e0500001e050000aa
:1002c8001e0500001e0500001e0500001e0500009a
:1002d8001e0500001e0500001e0500001e0500008a
:1002e8001e0500001e0500001e0500001e0500007a
:1002f8001e0500001e0500001e0500001e0500006a
:100308001e0500001e0500001e0500001e05000059
:100318001e0500001e0500001e0500001e05000049
:100328001e0500001e0500001e0500001e05000039
:100338001e0500001e0500001e0500001e05000029
:100348001e0500001e0500001e0500001e05000019
:100358001e0500001e0500001e0500001e05000009
:100368001e0500001e0500001e0500001e050000f9
:100378001e0500001e0500001e0500001e050000e9
:100388001e0500001e0500001e0500001e050000d9
:100398001e0500001e0500001e0500001e050000c9
:1003a8001e0500001e0500001e0500001e050000b9
:1003b8001e0500001e0500001e0500001e050000a9
:1003c8001e0500001e0500001e0500001e05000099
:1003d8001e0500001e0500001e0500001e05000089
:1003e8001e0500001e0500001e0500001e05000079
:0803f8001e0500001e050000b7
:020000040000fa
:100510000000fa0095a0a800f0f32f0060198800f1
:100520000080eb005019880023a3a80023c3a80073
:1005300023e3a8002403a8002423a8002443a80040
:100540002463a8002483a80024a3a80024c3a8002f
:1005500024e3a80020a3a80020c3a80020e3a8004b
:100560002503a8002523a8002543a8002563a8008b
:100570002583a80021e3a8000080fa0000000600ff
:100580000200fa00000f78001e0078004019880071
:100590002023a80020c3bf00614060000004e000e9
:1005a000fcff32002023a900001880000080fa0020
:1005b000000006000600fa00004f780011079800be
:1005c0001e80fb00200798002e009000e20f5000d4
:1005d000150032002e009000e20f500004003c0095
:1005e0002e009000e10f500008003200220037007a
:1005f0002e009000e30f5000120032002e009000f9
:10060000e40f5000160032001b00370023c2bf0069
:10061000624060000004e000fcff3a001e00900011
:10062000201188001400370033c2bf006240600010
:100630000004e000fcff3a001e009000a0118800ba
:100640000d00370053c2bf00624060000004e000ac
:10065000fcff3a001e009000a01288000600370040
:10066000b3c2bf00624060000004e000fcff3a003b
:100670001e009000a01588000080fa00000006000f
:100680000000fa000a0007004b000700a0ff070067
:1006900000802000404288001082200050428800e4
:1006a00060002000b6ff0700e0428800ffff37002f
:1006b0000000fa002174200062042000730520006d
:1006c000824878008348780042c7a900416a200028
:1006d0009140780000ccb30000c06000b040b3008f
:1006e000a4e6b700c16c20009140780000ccb300b4
:1006f00000c060003040b300cce6b700616a200063
:100700009140780000ccb30000c060000024a0003d
:10071000a6e6b700316c20009140780000ccb30011
:1007200000c060005040b300c3e6b700316a20004b
:100730009140780000ccb30000c060000034a000fd
:10074000a3e6b700916c20009140780000ccb30084
:1007500000c06000c041b300c9e6b700616b200073
:100760009140780000ccb30000c06000b041b300fd
:10077000b6e6b700a16d20009140780000ccb30030
:1007800000c06000e041b300dae6b7002174200049
:1007900062042000730520008248780083487800b6
:1007a00042c7a8000080fa00000006000000fa001e
:1007b0000080fa00000006000000fa007006200029
:1007c00040118800400028000011880000402800e7
:1007d0001011880070062000c01288005042a80046
:1007e00051e2a8005342a80070062000c011880002
:1007f0003042a80031e2a8003342a8007006200071
:10080000c0158800b042a800b1e2a800b342a80019
:1008100070062000c0158800b042a800b1e2a80010
:10082000b342a8000080fa00000006000400fa00ad
:100830006000b800008fbe000400370010002000e8
:10084000010020001e0f40005e974800f0342c008d
:1008500001002000be0f1000ae8f1800f7ff360019
:100860000080fa00000006000800fa00004f78003f
:100870001e80fb00200798002e009000e20f500021
:10088000160032002e009000e20f500004003c00e1
:100890002e009000e10f50000800320027003700c2
:1008a0002e009000e30f5000140032002e00900044
:1008b000e40f5000190032002000370022c2bf00b0
:1008c000614060000004e000fcff32003011800055
:1008d0000000fb00100798001900370032c2bf006b
:1008e000614060000004e000fcff3200b0118000b5
:1008f0000000fb00100798001100370052c2bf0033
:10090000614060000004e000fcff3200b012800093
:100910000000fb001007980009003700b2c2bf00ba
:10092000614060000004e000fcff3200b015800070
:100930000000fb001007980001003700020037009c
:100940001e009000300798003e0090000080fa00e2
:100950000000060000a0fe003600f800849fbe00e4
:10096000869fbe003400f80004c0b300a4018800d4
:100970000000fa00e04280005ee8b700e04280003c
:100980004800de005fe8b7005fc8bf008080fb0062
:1009900020c0b30007ff07005ec8bf008080fb00d7
:1009a00020c0b30003ff07000080fa003400f90004
:1009b0004f03be004f02be003600f9000080fe006b
:0409c00000400600ed
:020000040000fa
:1009c4000008000044000000020000000d0a53006b
:1009d40079737400656d2000506f77006572200094
:1009e400666169006c206f00636375007265640062
:1009f400200d0a00205800000d0a530074616e0097
:100a040064627900652050006f776500722066008b
:100a140061696c00206f63006375720065640d008a
:100a24000a20580000000000440800001e000000d6
:080a34000000000000000000ba
:020000040000fa
:040a3c000000fe00b8
:00000001FF
