:020000040000fa
:080000000002040000000000f2
:020000040000fa
:100400002f85200080772400000188000000000074
:10041000050007000c000700c602020000000000f3
:100420000040da000000fe004440a9000000200067
:100430000000e0000300320000002000a00188005e
:100440004440a800000006000044200001002000f5
:100450001600370062004000e080480091018800eb
:100460009001ba0062004000e080480091018800dd
:100470009002ba0062004000e08048000002eb00f9
:100480006028e10005003a008301e900070033001d
:10049000038009000059eb00040037006128e100e7
:1004a000010032000082eb00050007009101880086
:1004b0001001ba000200e000e6ff3a00000005006b
:1004c000910188008002780062004000e0804800ce
:1004d0003559ba008301e900080032002559ba00f5
:1004e0008301e900050032000400e000f4ff32005f
:1004f00015d9ba008301e900f1ff3a0000000600b7
:100500000000fa008020a900ffff37000000fa0079
:100510008060a900ffff37000000fa008040a900ba
:10052000ffff37000000fa008080a900ffff3700be
:100530000000fa0080a0a900ffff37000000fa00c9
:100540008020a900ffff37000000fa008060a900aa
:10055000ffff37000000fa008040a900ffff3700ce
:100560000000fa008080a900ffff37000000fa00b9
:1005700080a0a900ffff3700c0c6a900c0c2a90023
:1005800000000600c4c2aa00000006000400fa0031
:1005900090022000303a880044c7bf00f043b20008
:1005a00044e7b700417420009140780000ceb300ca
:1005b00000c0600044e7b7000000eb00403a88004c
:1005c00040a7a9001200200081072000a0092000f8
:1005d000337420008149780080497800824978008e
:1005e000030f780012002000610420007005200035
:1005f000237420008149780080497800824978007e
:100600001307980043c7bf000047b200f04f5000e7
:10061000fcff3a0042c7bf000042b2000004e00005
:10062000fcff32004400070003000700140007002d
:1006300025000700ffff37000000fa00200022001d
:10064000001c8800f0002000501c8800a000200042
:10065000101c880080242000401c8800007a2000a4
:10066000201c880000782000301c88008480a900ad
:100670009480a80081e3a8000080fa000000060032
:100680000000fa0020002000601c8800f00020001c
:10069000b01c8800a0002000701c8800802420006e
:1006a000a01c8800007e2000801c8800007c2000a8
:1006b000901c880085c0a90095c0a8008de3a80003
:1006c0000080fa00000006000000fa0042c2a90003
:1006d0004302a8004342a80042a2a800212420000f
:1006e0009140780030ceb30000c060008041b3007c
:1006f00042e2b7002124200091407800c0cfb3002f
:1007000000c060000014a00042e2b7004362a900ec
:100710004382a90041e2a80083e3a80083c3bf008d
:1007200001c8b300014060000004e000fbff3a0094
:100730000080fa00000006000200fa000000eb0052
:10074000000f7800060037001e007800017a2400b0
:1007500000004000010040001e0878001e0fe80065
:10076000f00020009e0f1000f7ff36000000eb00a5
:10077000000f7800080037001e0078009e00780007
:10078000708140000178240000004000010040001a
:10079000020878001e0fe800f00020009e0f1000f5
:1007a000f5ff36000000eb00000f78000d00370069
:1007b0001e007800017e24000000400081004000ff
:1007c000d0ee2d00800878001e007800017c240007
:1007d0000000400081004000d0ee2d00800878002d
:1007e0001e0fe800f10020009e8f1000f0ff360081
:1007f0000080fa00000006000000fa008480a900d2
:100800000080fa00004006003600f800809fbe001d
:10081000829fbe00849fbe00869fbe000000fa003b
:10082000804280000000e00003003a00007e2400c7
:100830000f00070002003700007c24000c000700b6
:10084000804280000000a200804288004dff070027
:1008500085c0a9000080fa004f03be004f02be0011
:100860004f01be004f00be003600f90000400600f8
:100870000200fa00000f78000080fa000000060075
:020000040000fa
:0200000401f009
:04000c00f8ff0000f9
:020000040000fa
:0200000401f009
:040010007fff00006e
:020000040000fa
:0200000401f009
:040014007fff00006a
:020000040000fa
:100008006204000080020000860200008c020000ea
:1000180092020000980200006204000062040000de
:100028006204000062040000620400006204000030
:10003800fc03000062040000620400006204000087
:100048006204000062040000620400006204000010
:10005800620400006204000004040000620400005e
:1000680062040000620400006204000062040000f0
:1000780062040000620400006204000062040000e0
:1000880062040000620400006204000062040000d0
:1000980062040000620400006204000062040000c0
:1000a80062040000620400006204000062040000b0
:1000b80062040000620400006204000062040000a0
:1000c8006204000062040000620400006204000090
:1000d8006204000062040000620400006204000080
:1000e8006204000062040000620400006204000070
:1000f8006204000062040000620400006204000060
:10010800620400006204000062040000620400004f
:10011800620400006204000062040000620400003f
:10012800620400006204000062040000620400002f
:10013800620400006204000062040000620400001f
:10014800620400006204000062040000620400000f
:1001580062040000620400006204000062040000ff
:1001680062040000620400006204000062040000ef
:1001780062040000620400006204000062040000df
:1001880062040000620400006204000062040000cf
:1001980062040000620400006204000062040000bf
:1001a80062040000620400006204000062040000af
:1001b800620400006204000062040000620400009f
:1001c800620400006204000062040000620400008f
:1001d800620400006204000062040000620400007f
:1001e800620400006204000062040000620400006f
:0801f800620400006204000033
:020000040000fa
:10020800620400009e020000a4020000aa0200008e
:10021800b0020000b60200006204000062040000a0
:10022800620400006204000062040000620400002e
:10023800fc03000062040000620400006204000085
:10024800620400006204000062040000620400000e
:10025800620400006204000004040000620400005c
:1002680062040000620400006204000062040000ee
:1002780062040000620400006204000062040000de
:1002880062040000620400006204000062040000ce
:1002980062040000620400006204000062040000be
:1002a80062040000620400006204000062040000ae
:1002b800620400006204000062040000620400009e
:1002c800620400006204000062040000620400008e
:1002d800620400006204000062040000620400007e
:1002e800620400006204000062040000620400006e
:1002f800620400006204000062040000620400005e
:10030800620400006204000062040000620400004d
:10031800620400006204000062040000620400003d
:10032800620400006204000062040000620400002d
:10033800620400006204000062040000620400001d
:10034800620400006204000062040000620400000d
:1003580062040000620400006204000062040000fd
:1003680062040000620400006204000062040000ed
:1003780062040000620400006204000062040000dd
:1003880062040000620400006204000062040000cd
:1003980062040000620400006204000062040000bd
:1003a80062040000620400006204000062040000ad
:1003b800620400006204000062040000620400009d
:1003c800620400006204000062040000620400008d
:1003d800620400006204000062040000620400007d
:1003e800620400006204000062040000620400006d
:0803f800620400006204000031
:020000040000fa
:10088000500800000200000002000000000000000c
:10089000e04700002000000000000000c04700000a
:1008a0002000000000000000a04700002000000021
:1008b0000000000080470000200000000000000051
:0408c0000000000034
:020000040000fa
:0408c4000000fe0032
:00000001FF
