:020000040000fa
:080000000002040000000000f2
:020000040000fa
:100400002f802000007f24000001880000000000f1
:100410000a00070011000700000020000000e000b3
:10042000020032000000020000000000360302005b
:10043000000000000040da000000fe004440a90077
:10044000000020000000e000030032000000200057
:10045000a00188004440a80000000600a05620002b
:10046000010020001500370062004000e0804800d5
:10047000910188009001ba0062004000e0804800cd
:10048000910188009002ba0062004000e0804800bc
:100490000002eb006028e10004003a000059eb0084
:1004a0008301e900fdff3e00040037006128e10000
:1004b000010032000082eb00050007009101880076
:1004c0001001ba000200e000e7ff3a00000005005a
:1004d000910188008002780062004000e0804800be
:1004e0003559ba008301e900080032002559ba00e5
:1004f0008301e900050032000400e000f4ff32004f
:1005000015d9ba008301e900f1ff3a0000000600a6
:100510009820a90061e2a9008820a9000000060037
:1005200010138800211388000213880000000600c1
:100530008820a900c401dd000347b200410b200060
:1005400091407800f2c8b30082c0600083c07000a0
:100550008000fd00b4e0b7008000fd00680060008e
:100560004300de00004040008109200091407800f7
:100570000114a10080c070000100780098e0b7006d
:100580000000060060c2bf008080eb000008a300ee
:100590000800320060c2a90063c2bf000028a300a7
:1005a0000200320041138000020037004113800036
:0c05b000f10fb20001007800000006000e
:020000040000fa
:10000800720500007205000072050000720500000c
:1000180072050000720500007205000072050000fc
:1000280072050000720500007205000072050000ec
:1000380072050000720500007205000072050000dc
:1000480072050000720500007205000072050000cc
:10005800720500001403000072050000720500001c
:1000680072050000720500007205000072050000ac
:10007800720500007205000072050000720500009c
:10008800720500007205000072050000720500008c
:10009800720500007205000072050000720500007c
:1000a80072050000b404000072050000720500002b
:1000b800720500007205000072050000720500005c
:1000c800720500007205000072050000720500004c
:1000d800720500007205000072050000720500003c
:1000e800720500007205000072050000720500002c
:1000f800720500007205000072050000720500001c
:10010800720500007205000072050000720500000b
:1001180072050000720500007205000072050000fb
:1001280072050000720500007205000072050000eb
:1001380072050000720500007205000072050000db
:1001480072050000720500007205000072050000cb
:1001580072050000720500007205000072050000bb
:1001680072050000720500007205000072050000ab
:10017800720500007205000072050000720500009b
:10018800720500007205000072050000720500008b
:10019800720500007205000072050000720500007b
:1001a800720500007205000072050000720500006b
:1001b800720500007205000072050000720500005b
:1001c800720500007205000072050000720500004b
:1001d800720500007205000072050000720500003b
:1001e800720500007205000072050000720500002b
:0801f800720500007205000011
:020000040000fa
:10020800720500007205000072050000720500000a
:1002180072050000720500007205000072050000fa
:1002280072050000720500007205000072050000ea
:1002380072050000720500007205000072050000da
:1002480072050000720500007205000072050000ca
:10025800720500001403000072050000720500001a
:1002680072050000720500007205000072050000aa
:10027800720500007205000072050000720500009a
:10028800720500007205000072050000720500008a
:10029800720500007205000072050000720500007a
:1002a80072050000b4040000720500007205000029
:1002b800720500007205000072050000720500005a
:1002c800720500007205000072050000720500004a
:1002d800720500007205000072050000720500003a
:1002e800720500007205000072050000720500002a
:1002f800720500007205000072050000720500001a
:100308007205000072050000720500007205000009
:1003180072050000720500007205000072050000f9
:1003280072050000720500007205000072050000e9
:1003380072050000720500007205000072050000d9
:1003480072050000720500007205000072050000c9
:1003580072050000720500007205000072050000b9
:1003680072050000720500007205000072050000a9
:100378007205000072050000720500007205000099
:100388007205000072050000720500007205000089
:100398007205000072050000720500007205000079
:1003a8007205000072050000720500007205000069
:1003b8007205000072050000720500007205000059
:1003c8007205000072050000720500007205000049
:1003d8007205000072050000720500007205000039
:1003e8007205000072050000720500007205000029
:0803f80072050000720500000f
:020000040000fa
:1005bc000000fa00f0f32f0060198800000e2000f4
:1005cc0000198800000c20008019880020f0210000
:1005dc00201988000000eb001019880021e3a80006
:1005ec000080fa00000006000200fa00000f7800fc
:1005fc001e007800401988002023a80020c3bf00eb
:10060c00614060000004e000fcff32002023a900e0
:10061c00001880000080fa000000060000a0fe0018
:10062c003600f800849fbe00869fbe003400f800a0
:10063c0004c0b300a40188000000fa00600420008c
:10064c003d0007000080fa003400f9004f03be00a3
:10065c004f02be003600f9000080fe00004006008c
:10066c000a00fa0020002000870007000000eb00c1
:10067c00001788000000eb0040168800730007008c
:10068c0010000700200320002b00070016000700b5
:10069c0015000700df000700100798001e009000ef
:1006ac00250007001e0090004880de002200070095
:1006bc0030032000200007000000eb00000f780042
:1006cc00ffff37000000fa00c0002000c0158800b2
:1006dc0080002800801588000040200090158800bc
:1006ec000080fa00000006000400fa000000eb0095
:1006fc00100798000a0037000000eb00000f78008c
:10070c00010037001e0fe800900020009e0f100023
:10071c00fcff34001e0090000000e8001007980059
:10072c009e009000301f2000808f5000f2ff34009c
:10073c000080fa00000006000200fa00004f78006a
:10074c00b3c2bf00624060000004e000fcff3a004e
:10075c001e80fb00a01588000080fa000000060037
:10076c000800fa00004f78001e80fb00200798005c
:10077c002e009000e20f5000160032002e00900068
:10078c00e20f500004003c002e009000e10f5000de
:10079c0008003200270037002e009000e30f5000b5
:1007ac00140032002e009000e40f500019003200ab
:1007bc002000370022c2bf00614060000004e0004e
:1007cc00fcff3200301180000000fb001007980085
:1007dc001900370032c2bf00614060000004e00025
:1007ec00fcff3200b01180000000fb0010079800e5
:1007fc001100370052c2bf00614060000004e000ed
:10080c00fcff3200b01280000000fb0010079800c3
:10081c0009003700b2c2bf00614060000004e00074
:10082c00fcff3200b01580000000fb0010079800a0
:10083c0001003700020037001e00900030079800be
:10084c003e0090000080fa00000006000000fa0054
:10085c00616b20009140780000ccb30000c06000b8
:10086c00b041b300b6e6b700316d2000914078007e
:10087c0000ccb30000c06000e041b300d3e6b70089
:10088c000080fa00000006000200fa00000f780059
:10089c00100020009e0f100019003a00c16a2000c1
:1008ac009140780000ccb30000c06000c040b300a1
:1008bc00ace6b700216c20009140780000ccb3006e
:1008cc0000c06000a040b300c2e6b700316c20004d
:1008dc009140780000ccb30000c06000c040b30071
:1008ec00c3e6b700416c20009140780000ccb30007
:1008fc0000c06000b040b300c4e6b700150037007c
:10090c00200020009e0f100012003a00c16a200047
:10091c009140780000ccb30000c06000c040b30030
:10092c00ace6b700d16a20009140780000ccb3004f
:10093c0000c060000024a000ade6b700216c2000d0
:10094c009140780000ccb30000c06000a040b30020
:10095c00c2e6b7000080fa00000006003600f8007e
:10096c00809fbe00829fbe00849fbe00869fbe00fb
:10097c003400f80000c0b300a00188000000fa00a9
:10098c008820a90090c3b3006bff070040c2a900e8
:10099c000080fa003400f9004f03be004f02be0085
:1009ac004f01be004f00be003600f90000400600ab
:1009bc000800fa00d3fe0700006220003007980000
:1009cc000000eb002007980000002800100798009a
:1009dc001e019000ae0090003e009000cdfe07007e
:1009ec000080fa00000006000200fa00000f7800f8
:1009fc001e0078004013880060c2bf006140600098
:100a0c000004e000fcff3200401380000080fa007c
:100a1c00000006000800fa00bafe0700e000200003
:100a2c00c0fe07000000eb00300798000000eb0050
:100a3c0020079800000028001007980060c2a90049
:100a4c001e019000ae0090003e009000b1fe070029
:100a5c0030c3b30038ff070060c2bf0061406000c4
:100a6c000043b00034ff070060c2bf00614060006b
:100a7c000043b00030ff070060c2bf000080fb00e5
:100a8c000000d100614060000043b0002aff070065
:100a9c0060c2bf00614060000004e000fcff320057
:100aac0040c3b30024ff0700b3fe0700000f78001b
:100abc0050c3b30020ff070092fe07001e00780011
:080acc000080fa0000000600a2
:020000040000fa
:100ad4000008000002000000000000000000000008
:020000040000fa
:040ae4000000fe0010
:00000001FF
