:020000040000fa
:080000000002040000000000f2
:020000040000fa
:100400000f852000007f240000018800000000000c
:100410000a00070011000700000020000000e000b3
:10042000020032000000020000000000880202000a
:10043000000000000040da000000fe004440a90077
:10044000000020000000e000030032000000200057
:10045000a00188004440a80000000600e04b2000f6
:10046000010020001500370062004000e0804800d5
:10047000910188009001ba0062004000e0804800cd
:10048000910188009002ba0062004000e0804800bc
:100490000002eb006028e10004003a000059eb0084
:1004a0008301e900fdff3e00040037006128e10000
:1004b000010032000082eb00050007009101880076
:1004c0001001ba000200e000e7ff3a00000005005a
:1004d000910188008002780062004000e0804800be
:1004e0003559ba008301e900080032002559ba00e5
:1004f0008301e900050032000400e000f4ff32004f
:1005000015d9ba008301e900f1ff3a0000000600a6
:020000040000fa
:020000040005f5
:0457f400ffff0000b3
:020000040000fa
:020000040005f5
:0457f800fdf20000be
:020000040000fa
:020000040005f5
:0457fc007f7f0000ab
:020000040000fa
:10000800fa040000fa040000fa040000fa040000f0
:10001800fa040000fa040000fa040000fa040000e0
:10002800fa040000fa040000fa040000fa040000d0
:10003800fa040000fa040000fa040000fa040000c0
:10004800fa040000fa040000fa040000fa040000b0
:10005800fa040000fe030000fa040000fa0400009d
:10006800fa040000fa040000fa040000fa04000090
:10007800fa040000fa040000fa040000fa04000080
:10008800fa040000fa040000fa040000fa04000070
:10009800fa040000fa040000fa040000fa04000060
:1000a800fa040000fa040000fa040000fa04000050
:1000b800fa040000fa040000fa040000fa04000040
:1000c800fa040000fa040000fa040000fa04000030
:1000d800fa040000fa040000fa040000fa04000020
:1000e800fa040000fa040000fa040000fa04000010
:1000f800fa040000fa040000fa040000fa04000000
:10010800fa040000fa040000fa040000fa040000ef
:10011800fa040000fa040000fa040000fa040000df
:10012800fa040000fa040000fa040000fa040000cf
:10013800fa040000fa040000fa040000fa040000bf
:10014800fa040000fa040000fa040000fa040000af
:10015800fa040000fa040000fa040000fa0400009f
:10016800fa040000fa040000fa040000fa0400008f
:10017800fa040000fa040000fa040000fa0400007f
:10018800fa040000fa040000fa040000fa0400006f
:10019800fa040000fa040000fa040000fa0400005f
:1001a800fa040000fa040000fa040000fa0400004f
:1001b800fa040000fa040000fa040000fa0400003f
:1001c800fa040000fa040000fa040000fa0400002f
:1001d800fa040000fa040000fa040000fa0400001f
:1001e800fa040000fa040000fa040000fa0400000f
:0801f800fa040000fa04000003
:020000040000fa
:10020800fa040000fa040000fa040000fa040000ee
:10021800fa040000fa040000fa040000fa040000de
:10022800fa040000fa040000fa040000fa040000ce
:10023800fa040000fa040000fa040000fa040000be
:10024800fa040000fa040000fa040000fa040000ae
:10025800fa040000fe030000fa040000fa0400009b
:10026800fa040000fa040000fa040000fa0400008e
:10027800fa040000fa040000fa040000fa0400007e
:10028800fa040000fa040000fa040000fa0400006e
:10029800fa040000fa040000fa040000fa0400005e
:1002a800fa040000fa040000fa040000fa0400004e
:1002b800fa040000fa040000fa040000fa0400003e
:1002c800fa040000fa040000fa040000fa0400002e
:1002d800fa040000fa040000fa040000fa0400001e
:1002e800fa040000fa040000fa040000fa0400000e
:1002f800fa040000fa040000fa040000fa040000fe
:10030800fa040000fa040000fa040000fa040000ed
:10031800fa040000fa040000fa040000fa040000dd
:10032800fa040000fa040000fa040000fa040000cd
:10033800fa040000fa040000fa040000fa040000bd
:10034800fa040000fa040000fa040000fa040000ad
:10035800fa040000fa040000fa040000fa0400009d
:10036800fa040000fa040000fa040000fa0400008d
:10037800fa040000fa040000fa040000fa0400007d
:10038800fa040000fa040000fa040000fa0400006d
:10039800fa040000fa040000fa040000fa0400005d
:1003a800fa040000fa040000fa040000fa0400004d
:1003b800fa040000fa040000fa040000fa0400003d
:1003c800fa040000fa040000fa040000fa0400002d
:1003d800fa040000fa040000fa040000fa0400001d
:1003e800fa040000fa040000fa040000fa0400000d
:0803f800fa040000fa04000001
:020000040000fa
:100510000000fa001800070059000700c700070094
:100520000080200020428800108220003042880095
:1005300060002000d0000700504288005042800038
:100540004ce8b700504280004800de004de8b7009c
:100550004dc8bf008080fb0040c0b300d40007003e
:100560004cc8bf008080fb0040c0b300d000070033
:100570005c000700f1ff37000000fa002174200042
:1005800062042000730520008248780083487800c8
:1005900042c7a900416a20009140780000ccb30016
:1005a00000c06000b040b300a4e6b700c16c2000fa
:1005b0009140780000ccb30000c060003040b30030
:1005c000cce6b700616a20009140780000ccb3000f
:1005d00000c060000024a000a6e6b700316c200037
:1005e0009140780000ccb30000c060005040b300e0
:1005f000c3e6b700316a20009140780000ccb30018
:1006000000c060000034a000a3e6b700916c200099
:100610009140780000ccb30000c06000c041b3003e
:10062000c9e6b700616b20009140780000ccb300b0
:1006300000c06000b041b300b6e6b700a16d200075
:100640009140780000ccb30000c06000e041b300ee
:10065000dae6b70021742000620420007305200050
:10066000824878008348780042c7a8000080fa00da
:10067000000006000000fa000080fa0000000600fa
:100680000000fa0070062000401188004000280099
:10069000001188000040280010118800700620001a
:1006a000c01288005042a80051e2a8005342a8009e
:1006b00070062000c01188004000280080118800ca
:1006c000004028009011880070062000c0158800a6
:1006d000b042a800b1e2a800b342a8000080fa002e
:1006e000000006000400fa006000b800008fbe00a1
:1006f0000400370010002000010020001e0f400001
:100700005e974800f0342c0001002000be0f10005e
:10071000ae8f1800f7ff36000080fa0000000600d8
:100720000800fa00004f78001e80fb0020079800a8
:100730002e009000e20f5000150032002e009000b5
:10074000e20f500004003c002e009000e10f50002a
:1007500008003200230037002e009000e30f500005
:10076000120032002e009000e40f500016003200fc
:100770001c00370022c2bf00614060000004e0009e
:10078000fcff32003011800010079800160037007f
:1007900032c2bf00614060000004e000fcff320094
:1007a000b0118000100798000f00370052c2bf0040
:1007b000614060000004e000fcff3200b0128000e5
:1007c0001007980008003700b2c2bf006140600007
:1007d0000004e000fcff3200b01580001007980014
:1007e00001003700020037001e009000300798001b
:1007f0003e0090000080fa000000060000a0fe000d
:100800003400f800881f780008c0b300a8018800f1
:100810004f0478000000fa0085c0bf000042b2001b
:100820000004e000fcff320085a0a9000080fa006f
:100830003400f9000080fe00004006000000fa00cd
:1008400095a0a800400e200000198800c0032000d9
:100850001019880020f0210020198800f0f32f00e3
:1008600060198800000c20008019880021e3a8008e
:100870000080fa00000006000200fa00000f780075
:100880001e007800401988002023a80095ff07006b
:100890002023a90020c3bf00614060000004e000e5
:1008a000fcff3200001880000080fa000000060003
:1008b0000600fa00004f7800110798001e80fb0028
:1008c000200798002e009000e20f50001500320023
:1008d0002e009000e20f500004003c002e0090001b
:1008e000e10f500008003200220037002e00900077
:1008f000e30f5000120032002e009000e40f500071
:10090000160032001b00370023c2bf0062406000a7
:100910000004e000fcff3a001e0090002011880057
:100920001400370033c2bf00624060000004e000e2
:10093000fcff3a001e009000a01188000d00370057
:1009400053c2bf00624060000004e000fcff3a00b8
:100950001e009000a012880006003700b3c2bf003e
:10096000624060000004e000fcff3a001e009000be
:0c097000a01588000080fa0000000600be
:020000040000fa
:10097c000008000044000000020000000d0a5300b3
:10098c0079737400656d2000506f770065722000dc
:10099c00666169006c206f006363750072656400aa
:1009ac00200d0a00205800000d0a530074616e00df
:1009bc0064627900652050006f77650072206600d4
:1009cc0061696c00206f63006375720065640d00d3
:1009dc000a20580000000000440800000c00000031
:0809ec00000000000000000003
:020000040000fa
:0409f4000000fe0001
:00000001FF
