:020000040000fa
:080000000002040000000000f2
:020000040000fa
:100400008fcd2200007f2400000188000000000042
:100410000a00070011000700000020000000e000b3
:100420000200320000000200000000005c720200c6
:10043000000000000040da000000fe004440a90077
:10044000200820000000e00003003200000020002f
:10045000a00188004440a8000000060000262800f3
:10046000010020001500370062004000e0804800d5
:10047000910188009001ba0062004000e0804800cd
:10048000910188009002ba0062004000e0804800bc
:100490000002eb006028e10004003a000059eb0084
:1004a0008301e900fdff3e00040037006128e10000
:1004b000010032000082eb00050007009101880076
:1004c0001001ba000200e000e7ff3a00000005005a
:1004d000910188008002780062004000e0804800be
:1004e0003559ba008301e900080032002559ba00e5
:1004f0008301e900050032000400e000f4ff32004f
:1005000015d9ba008301e900f1ff3a0000000600a6
:100510008c02040000000000881f780002047800ac
:1005200014000700080040004f0478000000060097
:100530000000fa00881f7800000478003fb9970097
:10054000ea81570080007800c028200010000700d2
:10055000800078000000e000020035000040eb0061
:1005600000f47800010078004f0478000080fa0061
:10057000000006008001eb000200370061f0790006
:100580008301e800828f5100fcff3a000000060062
:100590006200fa00889fbe008a9fbe000004be0071
:1005a000020578008300780060f92f000f004000fa
:1005b000b000070088979f0099979f000000eb000c
:1005c000a09f9f009a4578000b80fb000000ea0086
:1005d000cf04de0050c2b30080cf550002003200cd
:1005e00009047800010037000904e9000800e00070
:1005f0000b0034001f909700080178008a007800f3
:100600008f9197000300010090979f000000e00089
:10061000930032002f98970000004400a09f9f0095
:100620000905450050c2b30080cf550004003200d8
:100630000b04e000e3ff3a002f9897008900370091
:100640000000eb00809f9f00f0979f00e0979f00c5
:10065000d0979f00c0979f00b0979f00c09f9f00ba
:1006600009003700a0cc22000080500000004000ac
:10067000e1cb2200e10078004f9897000100700064
:10068000c09f9f000a05e8001a4478008800fb001c
:10069000a0cc22007c000700800078000000e00071
:1006a000f0ff3a00a0c2b300804f54000e003a00a1
:1006b000bf8897000180e900b08f9f00100078008c
:1006c000b09f9f000000e00005003d000000ea0030
:1006d000b09f9f004f9897000020a000c09f9f00f0
:1006e0000a05e80010003700b19f9f00090037009d
:1006f000bf989700f0ff2700808f50000400320061
:100700006a08b9000000410003004000b09f9f004c
:100710000a05e8001a01fb0003fd2f000300410059
:10072000e90f5000f2ff3600e0c2b3009a4f10000c
:10073000040032000080eb00909f9f008a04780044
:100740001c0037008a04e800a0c2b300994f1000d3
:1007500007003a00bf8897000180e900b08f9f0032
:1007600010007800909f9f008a84e80011003700f5
:100770000000eb00909f9f00090037009f989700b2
:10078000f0ff2700808f5000040032006a08b90093
:100790000000410003004000909f9f008904e80092
:1007a0001901fb0003fd2f0003004100e90f500079
:1007b000f2ff3600194478008800fb0000cd2200cb
:1007c000310007000000e00002003a000044780019
:1007d000010037008904e800a87f9f0080c6b300ad
:1007e000804f540004003a00994f14000a003a0068
:1007f0006640500006003700c0c6b300804f54006a
:1008000005003a00994f140003003a00654040008b
:10081000a07f9f008904e8000905e800cbfb2f00ba
:100820008f8545001901fb0060f92f000f00400083
:100830000084e8008b0178008000780008007800d0
:100840001a0007000000e00005003a008b00780065
:1008500008007800580107000000e00059ff3d0043
:100860000080eb004f05be004f04be000080fa0080
:10087000000006000200fa00f1bf9f0001087800a6
:100880000080fa0000000600040037000204e000c7
:1008900001003a00000005000000e8001041780067
:1008a000814f5100f9ff3a0000000600889fbe000a
:1008b0008a1f7800000478000102780082447800e2
:1008c00003057800e0c6b300804f5100d20032002b
:1008d00015003c006b405000804f51002400320056
:1008e0000a003c0070405000804f51000f01320060
:1008f00065404000804f51007400320050c2b30088
:10090000804f510020013a001c01370040c6b3005f
:10091000804f51001b00320065404000804f510065
:1009200019013a001700370030c7b300804f51005b
:10093000fe00320007003c0064405000804f510030
:10094000620032000040e800804f51000e013a0082
:10095000e700370050c7b300804f51005b00320002
:1009600063404000804f510007013a0057003700b4
:100970009180e900010a7800780090009171780078
:1009800007013700a8609000c0c6b30080cf5000b8
:100990000a003a009400780064805000000a780051
:1009a0001000be004f89de00cf91de000002be00c5
:1009b00002037800820378001300370010c7b300e9
:1009c00080cf500003003200a0c6b30080cf50009b
:1009d00006003a009400780068805000000a780011
:1009e0003002be002003be00070037001480e9007b
:1009f000000a78001000780000027800cfa2de0024
:100a00000503780086037800049cbe000694be00af
:100a1000a860900080c6b30080cf50000e00320066
:100a200020c6b30080cf500005003a000400fb0050
:100a3000cf80de0001017800820178000a003700d3
:100a400040c7b30080cf5000030032006640400032
:100a500080cf500006003a0004007800cf80de000e
:100a60000101780082017800009cbe000294be0063
:100a70003800be002801be00e00f5000e08f580093
:100a8000e00f5900e08f590003003d00780090000e
:100a9000d1c2b3000a003700081090000018a3006c
:100aa0000300320078009000b1c2b30004003700a8
:100ab0000008a300530032007800900001c2b30088
:100ac000017578000000e8004d003700a860900034
:100ad000c0c6b30080cf500006003a0094007800f2
:100ae00064805000000a78001002be006033b80035
:100af0001300370010c7b30080cf5000030032004e
:100b0000a0c6b30080cf500006003a0094007800e1
:100b100068805000000a78003002be002003be004a
:100b2000070037001480e900000a78001000780000
:100b300000027800050020000600200007002000c9
:100b4000049cbe000694be00a860900080c6b3005e
:100b500080cf50000e00320020c6b30080cf50007e
:100b600005003a000480fb00010020000200200084
:100b7000030020000a00370040c7b30080cf5000b8
:100b8000030032006640400080cf500006003a006b
:100b90000400780001002000020020000300200073
:100ba000009cbe000294be00081090000038a30014
:100bb000140032003800be002801be00e00f5000d3
:100bc000e08f5800e00f5900e08f59000d0032000f
:100bd00080c7b30080cf54000300320080c5b3004b
:100be00080cf540007003a007800900001c3b300a2
:100bf000017578008000e80009f578000080e800c1
:100c0000700498007800900000004500600498008f
:100c10008940780042003700a8609000c0c6b30049
:100c200080cf5000250032000a003c006440500094
:100c300080cf50002800320000c0e80080cf500074
:100c4000140032006840500080cf500022003a006b
:100c50000a00370040c7b30080cf50001e003200aa
:100c60006640400080cf50001b00320069405000b9
:100c700080cf500018003a00060037001480e900c9
:100c8000000a780010007800485c9000084878005e
:100c9000450037001480e900000a7800100278004f
:100ca00068089000cf80de000101780082017800a2
:100cb000009abe000292be003b0037001480e9009b
:100cc000000a78001001780068089000cf80de00ec
:100cd0000089be00340037001480e900000a780063
:100ce00010007800680c9000080878002e0037008b
:100cf0001180e9008008780010007800cf80de00c5
:100d00000101780082017800009cbe000294be00c0
:100d100078009000000045006004980081c7b3008f
:100d200008007800ee0007001f0037001480e9007b
:100d3000000a7800100078006004980058099000bc
:100d40000200e00002003d009d010700090037009d
:100d50008000eb00a1010700800078000000e000a7
:100d6000030032006800900000805000010037004e
:100d700058089000100c98000b0037007800900085
:100d8000027578000600370078009000800045006a
:100d90000904e00001003a0059c2b3008948780014
:100da0000000e800700498000000eb004f05780098
:100db0004f04be00000006000400fa00889fbe0039
:100dc0008a9fbe008c1f780000047800010678001e
:100dd00070089000f8009000010050008808900012
:100de000010050009808900001005000a8089000f1
:100df00001005000b808900001005000c8089000a1
:100e0000810550000002220090bf9f0000032300d4
:100e1000a0bf9f00081090000028a30018003a000f
:100e20000b00e000160034008b0478000905780000
:100e3000e28f5400020036002a0020000200370032
:100e40000900e0000b00340058009000c801900039
:100e50000a017800ee80570003000100500498005a
:100e60000000e00096003200680890000000450095
:100e7000600c98008a8454004240a900ebff3c00bb
:100e8000780190000200e0000b0034005800900050
:100e9000c80190008c007800030001005004980005
:100ea0000000e0008600320068089000f800900022
:100eb00001004000600c9800880c90000900e000e0
:100ec0001500340009057800e28f54000200360056
:100ed0002a002000020037000900e0000b00340067
:100ee00058009000c80190000a017800ec8057007b
:100ef00003000100500498000000e0007000320080
:100f00006808900000004500600c98008a84540036
:100f10004240a900ebff3c00180990000200e000ed
:100f20000b003400e800900058009000c8019000c9
:100f300003000100500498000000e000600032004f
:100f4000680890009808900001004000600c98002c
:100f5000a80c90000900e000150034000905780095
:100f6000e28f5400020036002a0020000200370001
:100f70000900e0000b00340058009000c801900008
:100f80000a017800ec80570003000100500498002b
:100f90000000e0004a0032006808900000004500b0
:100fa000600c98008a8454004240a900ebff3c008a
:100fb000380990000200e0000d003400e8009000c5
:100fc000180890008080400058009000c8019000f0
:100fd00003000100500498000000e00038003200d7
:100fe00068089000b808900001004000600c98006c
:100ff000c80c90000900e0001500340009057800d5
:10100000e28f5400020036002a0020000200370060
:101010000900e0000b00340058009000c801900067
:101020000a017800ec80570003000100500498008a
:101030000000e00022003200680890000000450037
:10104000600c98008a8454004240a900ebff3c00e9
:10105000081090000028a3001b0032000b00e000e5
:10106000190034008b04780009057800e28f5400e1
:10107000020036002a002000020037000900e000cc
:101080000b00340058009000c80190000a0178005d
:10109000ee80570003000100500498000000e000bb
:1010a000070032006808900000004500600c9800be
:1010b0008a8454004240a90003003400eaff37004c
:1010c0000080eb00010037000000eb004f067800c5
:1010d0004f05be004f04be000080fa00000006006d
:1010e000ef02b000889fbe008a9fbe008c9fbe00aa
:1010f0008e1f780000067800d0ca2200c0b79f007b
:1011000080c5b30080cf500008003200c2c9220061
:10111000c2b79f007740400080cf500003003a00e4
:1011200083002000b3b79f000a00370080c7b300d8
:1011300080cf500005003200a4002000b4b79f000b
:1011400080c5b30080cf500002003a0000012000ab
:10115000b0b79f003c04be002c05be0040c6b300e3
:1011600080cf5000030032006540400080cf500027
:101170000b003a00e00f5400e08f5c00e00f5d00d0
:10118000e08f5d0006003d006000b8006011b8000f
:1011900008045000898458000a0559008b855900bd
:1011a000e00f5400e08f5c00e00f5d00e08f5d0019
:1011b00004003a005c0890008d0120000000e0006f
:1011c0000c003200bfb0970001027800cfa2de0011
:1011d00005037800860378000800be000a01be00ff
:1011e000090107004fb2970064407800d0df9f00ec
:1011f0007d0120003fb0970000027800cfa2de0002
:1012000005037800860378000800be000a01be00ce
:10121000f6000700009ebe000296be000d00e90029
:1012200061fc2f008f804000008740001e003700c7
:101230003fb1970002047800cfc4de0009057800b2
:101240008a0578000802be000a03be007fa8970046
:101250008fb097001fb19700afb19700ee00070065
:10126000d0b79f00e1b79f00f2b79f0083bf9f00f8
:101270008d06e9000802be000a03be006c010700eb
:101280007faa970000005200cfb097006157780006
:101290005fb09700efb097007fb197008fb99700cc
:1012a000009ebe000296be003c00be002c01be00a7
:1012b000f0af9f0081b79f0092b79f00a3b79f0038
:1012c000e00f5000e08f5800e00f5900e08f590008
:1012d000020034000d00e000d5ff3c00bfb09700d5
:1012e000e88f500010003a000c1090000038a30066
:1012f0000d003200f78f560006003e0062fc2f0002
:101300000f0141008d00410000c3b300914f100058
:10131000050032008d06e90000c3b30063fc2f0016
:101320008f81410080f17e0078811600120e9800b6
:101330006c00900063fc2f008f8141008d80410084
:101340008cfc07001c0990005c089000800f510085
:1013500006003d0002005000000e98000c109000a6
:101360000040a100001698000f0037000000e000c8
:101370000d003d000c10900074006000f00f500054
:1013800009003a007c089000fc0090000100500029
:101390008c08900001005000020050004240a9005b
:1013a00001003400000e98004f0778004f06be0081
:1013b0004f05be004f04be00ef02b1000000060062
:1013c00080007800010037000000e8001004e00011
:1013d000fdff3a0001005000000006008001eb0014
:1013e000040037008301e80090cf100004003200b1
:1013f0000000e800828f5100faff3a000000eb0085
:1014000000000600881f7800000478005001be002c
:101410004000be00040040008580480006014900ed
:1014200087814900009cbe000294be000400e100d8
:101430000588e1000690e1000798e1000200310014
:10144000680044001008e8004f047800000006001f
:10145000f4874700889fbe008a9fbe008c9fbe0015
:101460008e1f78000205be000004be00d4b79f00a6
:10147000e5b79f00f6b79f0087bf9f000000eb0015
:10148000c0b79f00b0b79f00a0b79f0090b79f0064
:1014900080b79f000d042000bfb097004fb09700a9
:1014a000000140000000e0000f003d004f08de009a
:1014b00000007100c0b79f009e00070001003d00c2
:1014c00012002000a100070001003d0012002000d2
:1014d000a6000700b1000700b60007000f0040009b
:1014e000c8ff0700220037004f08de000006710029
:1014f000ccb79f008f00070001003d0012002000c4
:101500009200070001003d00120020009700070034
:10151000a20007000fb297009fb297002fb3970069
:10152000bfb39700a90007000000520081805a0055
:1015300002015b0083815b0080b79f0091b79f0031
:10154000a2b79f00b3b79f000007eb009f00070002
:101550000020e10001a8e10002b0e10003b8e100d1
:10156000010031001e0020000e005600c0b79f0091
:101570004fb297000400e000070035001000200083
:10158000010020006011b800080470008984700018
:101590000a0571008b8571008d06e900beff3a00d7
:1015a0000400e00003003d00820007000f0040003f
:1015b00094ff07004fa897000000e00004003a00e5
:1015c0000fb497009fb497002fb59700bfb5970051
:1015d000940007004f0778004f06be004f05be007d
:1015e0004f04be004f01b10000000600881f7800c4
:1015f00018002000881f780095ff07008f87e900fa
:101600004f04780000000600801feb0090ff0700e9
:101610008f87e90000000600889fbe008a9fbe00f9
:101620008c1f78006e00070007003d007300070064
:10163000e00f5b00e08f5b0007003d003200070019
:101640000006eb00040037003400070002003d00f4
:101650002a0007001c00200072000700e3ff0700bb
:101660000203be000002be000c00e00001003200d8
:10167000220007000400be000601be004f067800ed
:101680004f05be004f04be0000000600889fbe004c
:101690008a9fbe008c1f78005100070005003d00a6
:1016a00056000700e00f5b00e08f5b0006003d0086
:1016b000040037001900070003003d006000b80077
:1016c0006011b8001000070056000700ceff0700a9
:1016d0000203be000002be000c00e0000100320068
:1016e000060007000400be000601be004f06780099
:1016f0004f05be004f04be00000006006000b800a9
:101700006011b800000037000402500085825800c4
:101710000603590087835900000006000006eb000d
:10172000e00f5200e08f5a00e00f5b00e08f5b009b
:10173000000006000180400090b79f000001eb0010
:101740008fb097000100e00000000600020070006a
:1017500090b79f000180400080b79f000001eb0020
:10176000ffa897000100e0000000060002007000e2
:1017700080b79f00018040006faa9700cf20de0055
:1017800001007000f0af9f00040242002500070036
:101790004f18de000002720000000600e4af9f0058
:1017a0000804440089844c000a054d008b854d00d7
:1017b000000006003fb29700cfb297005fb39700da
:1017c000efb3970000fe2f00000006003fb0970027
:1017d000cfb097005fb19700efb19700000006000f
:1017e0000205be000004be00e00f5000e08f58006c
:1017f000e00f5900e08f5900000006006000b800bb
:101800006011b80008045000898458000a05590086
:101810008b8559001c002000e00f5200e08f5a0019
:10182000000006000800be000a01be00000006001d
:10183000889fbe008a9fbe008c1f78000205be00f4
:101840000004be000006eb00e00f5000e08f5800df
:10185000e00f5900e08f590007003d006000b8001c
:101860006011b80008045000898458000a05590026
:101870008b8559001c002000e00f5200e08f5a00b9
:10188000e00f5b00e08f5b0002003d000f000700ef
:101890000c00a2000800be000a01be0012000700f2
:1018a0000203be000002be000c00e0000100320096
:1018b000060007000400be000601be004f067800c7
:1018c0004f05be004f04be00000006006000b800d7
:1018d0006011b800040250008582580006035900c8
:1018e0008783590000000600889fbe008a9fbe00c3
:1018f0008c9fbe000404b8000506b80089044600a9
:1019000060854e000606b8000a054600e0854e00d8
:101910000706b8008b054600040eb800890446008f
:101920000a854e00e0854d00050eb8000a05460008
:101930008b854e00060eb8008b0546000416b800d5
:101940000a0546008b854e000516b8008b0546003b
:10195000041eb8008b0546000800be000a01be0048
:101960004f06be004f05be004f04be00000006003b
:020000040000fa
:1000080044830000448300004483000044830000cc
:1000180044830000448300004483000044830000bc
:10002800448300004483000044830000a278000059
:100038004483000044830000448300006a7a00007f
:10004800448300004483000044830000cc81000006
:10005800ec810000228300004483000044830000f8
:10006800448300004483000044830000448300006c
:10007800448300004483000044830000448300005c
:10008800448300004483000044830000448300004c
:1000980044830000448300001e7f00001880000095
:1000a800448300004483000044830000448300002c
:1000b800448300004483000044830000448300001c
:1000c800448300004483000044830000448300000c
:1000d80044830000448300004483000044830000fc
:1000e80044830000448300004483000044830000ec
:1000f80044830000448300004483000044830000dc
:1001080044830000448300004483000044830000cb
:1001180044830000448300004483000044830000bb
:1001280044830000448300004483000044830000ab
:10013800448300004483000044830000448300009b
:10014800448300004483000044830000448300008b
:10015800448300004483000044830000448300007b
:10016800448300004483000044830000448300006b
:10017800448300004483000044830000448300005b
:10018800607d0000a07e00004483000044830000de
:10019800448300004483000044830000448300003b
:1001a800448300004483000044830000448300002b
:1001b800448300004483000044830000448300001b
:1001c800448300004483000044830000448300000b
:1001d80044830000448300004483000044830000fb
:1001e80044830000448300004483000044830000eb
:0801f800448300004483000071
:020000040000fa
:1002080044830000448300004483000044830000ca
:1002180044830000448300004483000044830000ba
:10022800448300004483000044830000a278000057
:100238004483000044830000448300006a7a00007d
:10024800448300004483000044830000cc81000004
:10025800ec810000228300004483000044830000f6
:10026800448300004483000044830000448300006a
:10027800448300004483000044830000448300005a
:10028800448300004483000044830000448300004a
:1002980044830000448300001e7f00001880000093
:1002a800448300004483000044830000448300002a
:1002b800448300004483000044830000448300001a
:1002c800448300004483000044830000448300000a
:1002d80044830000448300004483000044830000fa
:1002e80044830000448300004483000044830000ea
:1002f80044830000448300004483000044830000da
:1003080044830000448300004483000044830000c9
:1003180044830000448300004483000044830000b9
:1003280044830000448300004483000044830000a9
:100338004483000044830000448300004483000099
:100348004483000044830000448300004483000089
:100358004483000044830000448300004483000079
:100368004483000044830000448300004483000069
:100378004483000044830000448300004483000059
:10038800607d0000a07e00004483000044830000dc
:100398004483000044830000448300004483000039
:1003a8004483000044830000448300004483000029
:1003b8004483000044830000448300004483000019
:1003c8004483000044830000448300004483000009
:1003d80044830000448300004483000044830000f9
:1003e80044830000448300004483000044830000e9
:0803f80044830000448300006f
:020000040000fa
:101970000a0d0000546f0000204d0000617300004c
:101980007465000072200000203a00003a20000038
:10199000002500003032000058200000000a00003e
:1019a0000d460000726f00006d2000004d610000c8
:1019b00073740000657200003a3a000020000000d5
:1019c0000a0d0000467200006f6d00002045000007
:1019d0006c65000063740000726f00006e690000a7
:1019e000637300003a3a0000200000000a0d000076
:1019f000546f0000204500006c6500006374000017
:101a0000726f00006e690000637300003a3a0000d4
:101a1000200000000e0000001e0000003400000046
:101a20002c0000002c0000002c0000002c00000006
:101a300028000000300000003000000020000000fe
:101a40001c0000000e0000001e000000340000001a
:101a50002c0000002c0000002c0000002c000000d6
:101a600028000000300000003000000020000000ce
:041a70001c00000056
:020000040000fa
:101a74000000fa0071a0800080c0b30080487800a4
:101a840071a0800090c0b3009040980071a08000c5
:101a9400f0c0b300a040980071a08000c0c0b300a3
:101aa400b040980071a080000040eb00c040980056
:101ab40071a080000040eb00d040980071a080002d
:101ac4000040eb00e040980071a080000040eb0073
:101ad400f040980071a080000040eb00804898001e
:101ae40071a0800000c0eb00904898006000b8002e
:101af400604b8800714b88000d00370072a0800095
:101b0400604b8000714b800000004100ea004000ff
:101b140030c0b30080487800604b8000714b800077
:101b240061004000e0804800604b8800714b8800f1
:101b3400624b8000734b80003000200001002000c5
:101b4400800f5100818f5900ecff360071a0800096
:101b540010c0b300e048980071a0800000a02f00de
:101b64008008980071a0800010402f009008980011
:101b740071a08000f0002a00a008980071a08000e5
:101b840050402100b008980071a0800050c02d0082
:101b9400c00898006000b800604b8800714b880052
:101ba400670037006000b800804b8800914b8800c4
:101bb4001100370074a08000604b8000714b8000de
:101bc400824b8000934b80006700b9000400400002
:101bd40002004000fa0040000040eb00804878001a
:101be400804b8000914b800061004000e080480001
:101bf400804b8800914b8800824b8000934b80007f
:101c04006000200001002000800f5100818f5900e6
:101c1400e8ff360072a08000604b8000714b8000aa
:101c240000004100e1062000808040000040eb00fd
:101c34008048780072a08000604b8000714b800067
:101c440000004100a1072000808040000040eb001c
:101c54008048780072a08000604b8000714b800047
:101c640000004100610820008080400000c0eb00bb
:101c7400804878006000b800804b8800914b880051
:101c84001200370074a08000604b8000714b80000c
:101c9400824b8000934b80004200dd000400400032
:101ca40002004000210920008080400030c0b300c1
:101cb40080487800804b8000914b80006100400098
:101cc400e0804800804b8800914b8800824b800064
:101cd400934b80003000200001002000800f510051
:101ce400818f5900e7ff360072a08000604b8000ae
:101cf400714b800000004100210c200080804000d6
:101d040010c0b3008048780072a08000604b80004f
:101d1400714b800000004100e10c200080804000f5
:101d240000c1b30080487800604b8000714b800094
:101d340061004000e0804800604b8800714b8800df
:101d4400624b8000734b8000b00020000100200033
:101d5400800f5100818f590092ff36006000b80057
:101d6400604b8800714b88003c00370072a08000f3
:101d7400604b8000714b80004300dd000200400096
:101d8400a10d200080804000e0802d0080087800b4
:101d940072a08000604b8000714b80004300dd0026
:101da40002004000c10d200080804000f0002a00a5
:101db4008008780072a08000604b8000714b800026
:101dc4004300dd0002004000e10d2000808040005f
:101dd400308128008008780072a08000604b800069
:101de400714b80004300dd0002004000010e200022
:101df40080804000700127008008780072a0800075
:101e0400604b8000714b80004200dd000200400006
:101e1400a113200080804000005125008008780034
:101e240072a08000604b8000714b80004200dd0096
:101e340002004000c11320008080400060d12f00c8
:101e440080087800604b8000714b80006100400086
:101e5400e0804800604b8800714b8800624b800032
:101e6400734b8000b000200001002000800f51005f
:101e7400818f5900bdff36000080fa000000060083
:101e84000000fa0021af210010c0b30080487800a0
:101e940021af210020c0b300904098000040eb0027
:101ea40005e8b70020002000204b88000080fa00dd
:101eb400000006000000fa0021af210020c0b3009a
:101ec4008048780021af210020c0b30090409800e2
:101ed40020c0b30005e8b70020002000204b880094
:101ee4000080fa00000006000000fa0021af210083
:101ef40030c0b3008048780004c8bf008040780038
:101f04000114a00020af2100114098000040eb0014
:101f140005e8b70020002000204b88000080fa006c
:101f2400000006000000fa0021af210040c0b30009
:101f34008048780021af210020c0b3009040980071
:101f44000040eb0005e8b70020002000204b88008b
:101f54000080fa00000006000000fa0021af210012
:101f640050c0b3008048780021af210020c0b300e6
:101f74009040980050c0b30005e8b700200020004e
:101f8400204b88000080fa00000006000400fa00dc
:101f94000e8fe80010002000100798001e0090002b
:101fa4004300dd00100798001e0090000010a00000
:101fb4001007980021af210000c8b30080487800c2
:101fc40020af210010407800804078006140b300c9
:101fd40020af2100014878001e00e80090407800fe
:101fe40020af2100114098001e0078009040780036
:101ff40020af21002140980081802000914078008a
:1020040020af21003140980040002000204b880080
:1020140008c8bf000004e0000200350020002000d2
:10202400504a88000040eb0008e8b70060c0b300e5
:1020340005e8b70008c8bf000004e00010003d0038
:1020440000002800d049880000002800e0498800ea
:102054000000eb00e04888000000eb00d048880056
:102064000040eb0007e8b7000000eb00e04a8800fe
:10207400f0002000104a88000000eb00804888002f
:1020840000c0eb0018e8b70018c8bf0017e8b70095
:1020940010002000404888000080fa00000006007c
:1020a4000400fa000e8fe8002000200010079800ba
:1020b4001e0090004300dd00100798001e009000f1
:1020c4000010a0001007980021af210000c8b30041
:1020d4008048780020af21001040780080407800cc
:1020e4007140b30020af2100014878001e00e800d1
:1020f4009040780020af2100114098001e00780025
:102104009040780020af21002140980021af2100a9
:1021140000c0eb00b040980021af210000c0eb00ec
:10212400c040980050002000204b880070c0b300cd
:1021340005e8b7000080fa00000006000400fa0079
:102144000e8fe800c0152000100798001e009000b4
:102154004300dd00100798001e0090000010a0004e
:102164001007980021af210000c8b3008048780010
:1021740020af210010407800804078009140b300e7
:1021840020af2100014878001e00e800904078004c
:1021940020af2100114098001e0078009040780084
:1021a40020af21002140980021af210010c0b300ce
:1021b400b0409800418920009140780020af210070
:1021c4004140980095c8bf00ff40600020af210047
:1021d40051409800718920009140780020af21007f
:1021e400614098000000eb00100798000b003700d6
:1021f4001e009000670140009e009000808920002e
:10220400008040009040780020af210001717800e8
:102214001e0090000000e800100798001e009000c7
:10222400eb0f5000f2ff3600109580007c00400058
:10223400000f78000000eb00100798000a00370038
:102244001e009000730140001e007800904078004a
:1022540020af2100017178001e0fe8001e009000dd
:102264000000e800100798001e009000f10f5000d5
:10227400f3ff360009c8bf000080fb00ba1707004f
:10228400109580009040900020af2100516098008c
:1022940010958000a040900020af2100616098005c
:1022a400109580004003b000000f78000000eb00a0
:1022b400100798000b0037001e00900072022000e7
:1022c400000141001e0078009040780020af2100fa
:1022d400017178001e0fe8001e0090000000e80065
:1022e400100798009e009000f0052000808f500099
:1022f400f1ff3600109580004009b000000f78000f
:102304000000eb00100798000b0037001e0090003f
:1023140072082000000141001e00780090407800ff
:1023240020af2100017178001e0fe8001e0090000c
:102334000000e800100798001e009000f70f5000fe
:10234400f2ff360011958000405a200000804000c2
:10235400000f78000000eb00100798000b00370016
:102364001e009000f2092000000141001e007800c8
:102374009040780020af2100017178001e0fe80022
:102384001e0090000000e800100798009e009000d6
:10239400700a2000808f5000f1ff36000000eb002f
:1023a40010079800090037009e009000b0802000bc
:1023b40000804000104078000080fb008617070072
:1023c4001e0090000000e800100798001e00900016
:1023d400eb0f5000f4ff360010958000630f4000af
:1023e4000000eb00100798000b0037001e0090005f
:1023f40072142000000141001e0078009040780013
:1024040020af2100017178001e0fe8001e0090002b
:102414000000e800100798001e009000eb0f500029
:10242400f2ff3600109580006f0f40000000eb00b3
:10243400100798000b0037001e0090003215200092
:10244400000141001e0078009040780020af210078
:10245400017178001e0fe8001e0090000000e800e3
:10246400100798001e009000eb0f5000f2ff36009a
:10247400f0152000204b880090c0b30005e8b70099
:102484000040eb0097e8b70097c8bf0095e8b70095
:1024940095c8bf0094e8b7000000eb00100798004f
:1024a400080037009e009000808920008080400052
:1024b4000040eb00804878001e0090000000e80017
:1024c400100798001e009000eb0f5000f5ff360037
:1024d4000080fa00000006000600fa0021af210087
:1024e40000c8b3008048780020af21001040780075
:1024f40080407800b140b30020af2100014878004b
:10250400618820009140780020af2100314098007c
:1025140020af2100304090000080fb00610060008b
:102524000004e000bc0032000e8fe80020142000fc
:10253400100798001e0090004300dd00100798006b
:102544001e0090000010a000100798001e00e80074
:102554009040780020af2100114098001e007800c0
:102564009040780020af210021409800418820004d
:102574009140780020af21004140980085c8bf00f9
:10258400ff40600020af2100514098007188200076
:102594009140780020af2100614098000000eb00da
:1025a400100798000b0037001e00900067014000e0
:1025b4009e009000808820000080400090407800b9
:1025c40020af2100017178001e0090000000e80097
:1025d400100798001e009000eb0f5000f2ff360029
:1025e400109580007c004000000f78000000eb0094
:1025f400100798000a0037001e0090007301400085
:102604001e0078009040780020af2100017178000e
:102614001e0fe8001e0090000000e800100798005c
:102624001e009000ed0f5000f3ff3600109580005f
:10263400e1022000010f40000000eb0010079800a9
:102644000b0037001e009000120220000001410020
:102654001e0078009040780020af210001717800be
:102664001e0fe8001e0090000000e800100798000c
:102674001e009000e30f5000f2ff3600109580001a
:102684004003b000000f78000000eb001007980032
:102694000b0037001e009000520220000001410090
:1026a4001e0078009040780020af2100017178006e
:1026b4001e0fe8001e0090000000e80010079800bc
:1026c4009e009000f0052000808f5000f1ff36003e
:1026d40011958000c058200000804000000f780051
:1026e4000000eb00100798000b0037001e0090005c
:1026f40052082000000141001e007800904078003c
:1027040020af2100017178001e0fe8001e00900028
:102714000000e800100798001e009000f70f50001a
:10272400f2ff360011958000405a200000804000de
:10273400000f78000000eb00100798000b00370032
:102744001e009000d2092000000141001e00780004
:102754009040780020af2100017178001e0fe8003e
:102764001e0090000000e800100798009e009000f2
:10277400700a2000808f5000f1ff360050142000b2
:10278400204b88000040eb0087e8b70087c8bf00f3
:1027940085e8b70085c8bf0084e8b7000000eb00f7
:1027a40010079800080037009e00900080882000e1
:1027b400808040000040eb00804878001e009000bc
:1027c4000000e800100798001e009000eb0f500076
:1027d400f5ff3600b0c0b30005e8b70061882000fb
:1027e40091407800e0cfb30000c0600086e8b700f5
:1027f40086c8bf000080fb00670060000000e000a6
:102804000200320010002000704988000000eb0034
:10281400200798007f00370020af2100304090004f
:102824000080fb000000d100610060000004e000b3
:10283400370032000e8fe800d00020001007980007
:102844001e0090004300dd00100798001e00900059
:102854000010a000100798001e00e80090407800c7
:1028640020af2100114098001e00780090407800ad
:1028740020af21002140980011958000406f200076
:10288400008f40000000eb00100798000a0037009a
:102894001e009000640140001e0078009040780003
:1028a40020af2100017178001e0fe8001e00900087
:1028b4000000e800100798001e009000eb0f500085
:1028c400f3ff360000012000204b8800b0c0b300a5
:1028d40005e8b7006188200091407800d0cfb300ac
:1028e40000c0600086e8b70086c8bf000080fb0017
:1028f400670060000000e0000200320010002000c9
:10290400704988008000eb002107980041003700df
:1029140020af2100304090000080fb004200de0028
:10292400610060000004e000380032000e8fe8000f
:1029340070002000100798001e0090004300dd0086
:10294400100798001e0090000010a00010079800c7
:102954001e00e8009040780020af2100114098004c
:102964001e0078009040780020af2100214098009c
:1029740011958000c070200000804000000f780096
:102984000000eb00100798000a0037001e009000ba
:10299400640140001e0078009040780020af2100c0
:1029a400017178001e0fe8001e0090000000e8008e
:1029b400100798001e009000e50f5000f3ff36004a
:1029c400a0002000204b8800b0c0b30005e8b70089
:1029d4006188200091407800b0cfb30000c060004f
:1029e40086e8b70086c8bf000080fb00670060006f
:1029f4000000e0000200320010002000704988004e
:102a04000000eb0020079800020037008000eb0074
:102a1400210798002e0090000080fa0000000600b4
:102a24000400fa00109580007c004000000f78003c
:102a34000000eb00100798000a0037001e00900009
:102a4400640140001e0078009040780020af21000f
:102a5400017178001e0fe8001e0090000000e800dd
:102a6400100798001e009000ed0f5000f3ff360091
:102a7400109580004003b000000f78000000eb00c8
:102a8400100798000a0037001e00900072014000f1
:102a94001e0078009040780020af2100017178007a
:102aa4001e0fe8001e0090000000e80010079800c8
:102ab4009e009000f0052000808f5000f2ff360049
:102ac40010958000e1022000010f40000000eb009f
:102ad400100798000b0037001e009000220720000a
:102ae400000141001e0078009040780020af2100d2
:102af400017178001e0fe8001e0090000000e8003d
:102b0400100798001e009000e30f5000f2ff3600fb
:102b140011958000c058200000804000000f78000c
:102b24000000eb00100798000b0037001e00900017
:102b340062072000000141001e00780090407800e8
:102b440020af2100017178001e0fe8001e009000e4
:102b54000000e800100798001e009000f70f5000d6
:102b6400f2ff360011958000405a2000008040009a
:102b7400000f78000000eb00100798000b003700ee
:102b84001e009000e2082000000141001e007800b1
:102b94009040780020af2100017178001e0fe800fa
:102ba4001e0090000000e800100798009e009000ae
:102bb400700a2000808f5000f1ff3600601320005f
:102bc400204b8800c0c0b30005e8b7000080fa00bd
:102bd400000006000400fa00100798000000eb0053
:102be400000f78000a0037001e00780064014000de
:102bf4001e0090009040780020af21000171780001
:102c04001e0090000000e800100798001e0fe80066
:102c1400701320009e0f1000f3ff3400c013200037
:102c2400204b8800c0c0b30005e8b7000080fa005c
:102c3400000006000800fa000e8fe8000000eb0018
:102c4400204b88000040eb0040479800a7c8bf0015
:102c5400e14f500003003a003013200010079800a1
:102c64000200370090132000100798001e00900007
:102c74004300dd00100798001e0090000010a00023
:102c84001007980021af210000c8b30080487800e5
:102c940020af21001040780080407800c140b3008c
:102ca40020af2100014878001e00e8009040780021
:102cb40020af2100114098001e0078009040780059
:102cc40020af2100214098000000eb00100798007d
:102cd400340037001e0090004300de0080007800be
:102ce400708a200000804000104078008080fb0043
:102cf4001e009000670060000088de006100600034
:102d04000004e000120032001e0090004300de00c8
:102d140064014700000141001e0090004300de00f2
:102d240080007800640047000100400010407800f3
:102d3400804178001e009000e70060001000200031
:102d44000100dd0000c07100004978001200370066
:102d54001e0090004300de006401470000014100b2
:102d64001e0090004300de008000780064004700ed
:102d74000100400010407800804178001e0090005f
:102d8400e7006000100020000100dd0000c0ea0040
:102d940000c06100004978001e0090000000e800b7
:102da400100798001e009000e70f5000c9ff36007e
:102db4004e40900021af2100b04098004e4090005a
:102dc4000080fb00300798003e009000e40f5000a4
:102dd400190032003e009000e40f500007003c0050
:102de4003e009000e10f50000b0032003e009000c6
:102df400e20f50000a003200210037003e0090002c
:102e0400e80f5000120032003e009000f00f500016
:102e1400150032001a00370001ff070018003700c0
:102e240010958000c00ab000000f78001e007800e2
:102e340068ff07001200370010958000401eb000a4
:102e4400000f78001e00780062ff07000c003700b6
:102e540010958000c031b000000f78001e0078008b
:102e64005cff0700060037001095800041452000f4
:102e740001004000000f78001e00780055ff070095
:102e84000080fa00000006000400fa000e8fe8003b
:102e9400a0162000100798001e0090004300dd00db
:102ea400100798001e0090000010a0001007980062
:102eb40021af210000c8b3008048780020af210072
:102ec4001040780080407800e140b30020af21003a
:102ed400014878001e00e8009040780020af2100ef
:102ee400114098001e0078009040780020af210027
:102ef4002140980021af210010c0b300b0409800d9
:102f040070a08000000f78000000eb00100798000c
:102f14000a0037001e009000640140001e00780083
:102f24009040780020af2100017178001e0fe80066
:102f34001e0090000000e800100798001e0090009a
:102f4400ee0f5000f3ff360070a0800070004000c8
:102f5400000f78000000eb00100798000a0037000b
:102f64001e009000730140001e007800904078001d
:102f740020af2100017178001e0fe8001e009000b0
:102f84000000e800100798001e009000e90f5000b0
:102f9400f3ff360070a080007a004000000f780034
:102fa4000000eb00100798000a0037001e00900094
:102fb4007d0140001e0078009040780020af210081
:102fc400017178001e0fe8001e0090000000e80068
:102fd400100798009e00900030052000808f50005c
:102fe400f2ff360070a08000e1062000010f4000cf
:102ff4000000eb00100798000b0037001e00900043
:1030040012072000000141001e0078009040780063
:1030140020af2100017178001e0fe8001e0090000f
:103024000000e800100798001e009000eb0f50000d
:10303400f2ff360070a08000a1072000010f4000bd
:103044000000eb00100798000b0037001e009000f2
:10305400d2072000000141001e0078009040780053
:1030640020af2100017178001e0fe8001e009000bf
:103074000000e800100798001e009000eb0f5000bd
:10308400f2ff360070a0800061082000010f4000ac
:103094000000eb00100798000b0037001e009000a2
:1030a40092082000000141001e0078009040780042
:1030b40020af2100017178001e0fe8001e0090006f
:1030c4000000e800100798001e009000eb0f50006d
:1030d400f2ff360070a080002009b000000f7800d5
:1030e4000000eb00100798000b0037001e00900052
:1030f40052092000000141001e0078009040780031
:1031040020af2100017178001e0fe8001e0090001e
:103114000000e800100798009e009000f0022000d4
:10312400808f5000f1ff360070a08000210c200039
:10313400010f40000000eb00100798000b0037005f
:103144001e009000520c2000000141001e00780077
:103154009040780020af2100017178001e0fe80034
:103164001e0090000000e800100798001e00900068
:10317400eb0f5000f2ff360070a08000e10c20003d
:10318400010f40000000eb00100798000b0037000f
:103194001e009000120d2000000141001e00780066
:1031a4009040780020af2100017178001e0fe800e4
:1031b4001e0090000000e800100798001e00900018
:1031c400eb0f5000f2ff360070a08000a00db0009d
:1031d400000f78000000eb00100798000b00370088
:1031e4001e009000d20d2000000141001e00780056
:1031f4009040780020af2100017178001e0fe80094
:103204001e0090000000e800100798009e00900047
:10321400f0052000808f5000f1ff360070a0800080
:10322400a013b000000f78000000eb001007980016
:103234000b0037001e009000d21320000001410053
:103244001e0078009040780020af210001717800c2
:103254001e0fe8001e0090000000e8001007980010
:103264009e009000f0022000808f5000f1ff360095
:10327400d0162000204b8800e0c0b30005e8b7005a
:103284000080fa00000006000400fa000040eb0091
:10329400004f7800e15d210080cb28001000090078
:1032a400b05878001101b1001001b10000012000f4
:1032b400004b88000000eb0010079800190037004d
:1032c4009e00900020af2100614078000081fb0047
:1032d400004b800080007800e05d21000080400009
:1032e40080007800821f780090cc2800801f78002e
:1032f400010078008df40700e48757009e009000d9
:1033040020af2100614078001e4f4000004b800038
:1033140063004000004b88001e0090000000e8009d
:10332400100798009e009000204b8000808f500072
:10333400e3ff39009e00fb000080eb000088b90029
:10334400004f78009e00fb00f00f20000081600019
:10335400004b800080007800e05d21000080400088
:1033640080007800821f780090cc2800801f7800ad
:10337400010078006df40700e4875700004b8000db
:1033840063004000004b8800e05d2100a0438800fa
:103394009580a8000080fa00000006000200fa00f0
:1033a4000000eb00004b8800e15d2100f0cc280018
:1033b40010000900b05878001101b1001001b100eb
:1033c40000012000004b88000000eb00000f780093
:1033d400140037009e007800408a200000804000de
:1033e400104078000081fb00004b800080007800d2
:1033f400e05d21000080400080007800821f78009a
:1034040090cc2800801f78000100780047f4070062
:10341400e4875700004b800063004000004b8800a5
:103424001e0fe8001e007800914a8000e3804000ef
:10343400810f5000e7ff39000000eb00904a88003c
:10344400e05d2100a04388009580a8000080fa0078
:10345400000006000600fa00a04880000000e0001a
:1034640003003a00b04880000000e000030032008e
:103474000000eb00000f78006700370003c8bf00ae
:103484000004e0000300350003c8bf00ee4f500005
:10349400030034008000eb00010f78005e00370069
:1034a40003c8bf000000fb006101b9000080eb000d
:1034b4008080eb00020140008381480012079800dd
:1034c40023079800d0002000010020001e01900076
:1034d400ae019000800f5100818f59002f003e00f3
:1034e4001e009000ae009000006001000d00370047
:1034f4000e0037000f0037001000370011003700ae
:10350400120037001300370014003700160037008c
:1035140017003700190037001a0037001b00370066
:103524001d00370056fa07001c00370061fa070037
:103534001a0037006cfa07001800370079fa070000
:103544001600370084fa0700140037008ffa0700ca
:1035540012003700d2fa0700100037008000eb0099
:10356400010f78002c003700f4fa07000b00370035
:103574000001eb00020f780027003700d6fb07009c
:1035840006003700abfd0700040037008001eb00a4
:10359400030f7800200037003bfe070003c8bf007c
:1035a4000004e0001a003200204b80000000e0001c
:1035b40003003a000000eb00000f7800160037000b
:1035c4000040eb0003e8b7000040eb0000e8b70060
:1035d40020af2100b0438800904980000000d10052
:1035e400610060000004e0000300320010002000cd
:1035f400a048880024ff0700204b80000000e8005a
:10360400204b880010002000b048880097e0a800f4
:103614008000eb00010f78001e0078000080fa00a3
:10362400000006000200fa00004f78001e407800f7
:1036340004e8b70030c0b30003e8b7000080fa0024
:10364400000006000200fa00a5c8bf00674f600032
:10365400a5c8bf000080fb004300de0010479800af
:103664000040eb0005e8b7000080fa000000060007
:103674000200fa00004f78001e40780003e8b7000b
:103684000080fa00000006000000fa0080c2b300c7
:10369400e4ff070010002000304988000080fa0091
:1036a400000006000400fa00a9c8bf000080fb0067
:1036b4004400de00610060000004e0004e003200bf
:1036c4000000eb0010079800470037001e00900030
:1036d4004380de0080007800a08a20000080400043
:1036e400104078008080fb001e00900082002000c3
:1036f400811f7800110009000200d8000001780041
:1037040001007800cf0078000088de0061006000ce
:103714000004e00031003200aac8bf000004e00049
:1037240018003d0070a08000e90040001e009000d9
:103734004380de000082400070a08000e900400069
:103744001e0090004380de0000804000104078009e
:10375400804178001e0090008200200011000900c2
:103764000200d8008000fd008000780010002000d6
:103774000100dd0000c0ea0000c06100004a7800da
:103784001600370070a08000e90040001e00900081
:103794004380de000082400070a08000e900400009
:1037a4001e0090004380de0000804000104078003e
:1037b400804178001e009000820020001100090062
:1037c4000200d8008000fd00800078001000200076
:1037d4000100dd0000c07100004a78001e00900066
:1037e4000000e800100798001e009000e60f50004b
:1037f400b6ff3400730037000000eb001007980098
:103804006d0037001e0090004380de0080007800c9
:10381400808a200000804000104078008080fb00f7
:103824001e00900082002000811f78001100090012
:103834000200d8000001780001007800cf00780071
:103844000088de00610060000004e00057003200e0
:103854000000eb00000f7800510037001e007800d4
:103864004380de0080007800b08a200000804000a1
:10387400104078008080fb001e0078008200200049
:10388400811f7800110009000200d80000017800af
:1038940001007800cf0078000088de00610060003d
:1038a4000004e0003d003200abc8bf000004e000ab
:1038b4001e003d0070a08000610820008080400050
:1038c4001e009000808040001e0078004380de00cf
:1038d4000082400070a080006108200080804000c9
:1038e4001e009000808040001e0078004380de00af
:1038f4000080400010407800804178001e0078006d
:1039040082002000110009000200d8008000fd00a0
:1039140080007800100020000100dd0000c0ea00f3
:1039240000c06100004a78001c00370070a08000cd
:1039340061082000808040001e00900080804000cc
:103944001e0078004380de000082400070a08000ea
:1039540061082000808040001e00900080804000ac
:103964001e0078004380de00008040001040780094
:10397400804178001e0078008200200011000900b8
:103984000200d8008000fd008000780010002000b4
:103994000100dd0000c07100004a78001e0fe8003d
:1039a400600020009e0f1000acff34001e00900049
:1039b4000000e800100798001e009000eb0f500074
:1039c40090ff340080c3b30016ff07000080fa00a4
:1039d400000006000400fa00a9c8bf000080fb0034
:1039e4004400de00610060000004e0008c0032004e
:1039f4000000eb0010079800470037001e009000fd
:103a04004380de0080007800a08a2000008040000f
:103a1400104078008080fb001e009000820020008f
:103a2400811f7800110009000200d800000178000d
:103a340001007800cf0078000088de00610060009b
:103a44000004e00031003200aac8bf000004e00016
:103a540017003d0070a08000e60040001e009000aa
:103a64004380de000082400070a08000e600400039
:103a74001e0090004380de0000804000104078006b
:103a8400804178001e00900082002000110009008f
:103a94000200d8008000fd008000780010002000a3
:103aa4000100dd0000c07100004a780017003700f3
:103ab40070a08000e60040001e0090004380de00fd
:103ac4000082400070a08000e60040001e009000cc
:103ad4004380de0000804000104078008041780080
:103ae4001e00900082002000110009000200d8008e
:103af4008000fd0080007800100020000100dd003f
:103b040000c0ea0000c06100004a78001e00900076
:103b14000000e800100798001e009000e10f50001c
:103b2400b6ff3400aac8bf000080fb004500de00d9
:103b3400610060000004e0006b013200acc8bf000b
:103b4400e74f500004003e00acc8bf000040e9004d
:103b5400004f780002003700acc8bf00004f780067
:103b6400aac8bf000004e00016003d0073a0800056
:103b74001e80fb004300de000082fb0071a0800079
:103b84001e80fb004300de000080fb006600400056
:103b94000100400010409000004178001e80fb00ae
:103ba400e7006000100020000100dd00004071000b
:103bb4008040780004804100660040001140980075
:103bc4004901370073a080001e80fb004300de0023
:103bd4000082fb0071a080001e80fb004300de0019
:103be4000080fb006600400001004000104090008f
:103bf400004178001e80fb00e700600010002000f8
:103c04000100dd0000c0ea0000406100804078004f
:103c140004804100660040001140980032013700e2
:103c24000000eb00100798002c0137001e009000e4
:103c34004380de0080007800808a200000804000fd
:103c4400104078008080fb001e009000820020005d
:103c5400811f7800110009000200d80000017800db
:103c640001007800cf0078000088de006100600069
:103c74000004e00016013200abc8bf000080fb0066
:103c84004300de00610060000004e0001f00320019
:103c9400abc8bf000004e0000e003d0070a080002f
:103ca400e1062000808040001e009000008140005a
:103cb40070a08000e1062000808040001e0090007b
:103cc40000804000104078000034a00000497800d3
:103cd4000e00370070a08000e106200080804000c4
:103ce4001e0090000081400070a08000e1062000ca
:103cf400808040001e0090000080400090407800ca
:103d040070cfb30000c0600000497800abc8bf00aa
:103d14000080fb004200de00610060000004e0005f
:103d240049003200abc8bf000004e00023003d009e
:103d340070a08000e1062000808040001e009000fa
:103d440080804000acc8bf000080fb000000e90098
:103d54004380de000082400070a08000e106200065
:103d6400808040001e00900080804000acc8bf00ee
:103d74000080fb000000e9004380de00008040007a
:103d84001040780080417800acc8bf000080fb0080
:103d94000000e90082002000110009000200d800a0
:103da4008000fd0080007800100020000100dd008c
:103db40000c07100004a78002300370070a0800022
:103dc400e1062000808040001e00900080804000ba
:103dd400acc8bf000080fb000000e9004380de00a7
:103de4008081400070a08000e106200080804000b7
:103df4001e00900080804000acc8bf000080fb0023
:103e04000000e9004380de0000804000104078009c
:103e140000427800acc8bf000080fb000000e9004d
:103e240082002000110009000200d8008000fd007b
:103e340080007800100020000100dd0000c0ea00ce
:103e44000040620080497800abc8bf000080fb00de
:103e54004500de00610060000004e000490032001b
:103e6400abc8bf000004e00023003d0070a0800048
:103e7400a1072000808040001e0090008080400048
:103e8400acc8bf000080fb000000e9004380de00f6
:103e94000082400070a08000a107200080804000c4
:103ea4001e00900080804000acc8bf000080fb0072
:103eb4000000e9004380de000080400010407800ec
:103ec40080417800acc8bf000080fb000000e9001e
:103ed40082002000110009000200d8008000fd00cb
:103ee40080007800100020000100dd0000c0710097
:103ef400004a78002300370070a08000a10720004a
:103f0400808040001e00900080804000acc8bf004c
:103f14000080fb000000e9004380de008081400057
:103f240070a08000a1072000808040001e00900047
:103f340080804000acc8bf000080fb000000e900a6
:103f44004380de000080400010407800004278008a
:103f5400acc8bf000080fb000000e9008200200024
:103f6400110009000200d8008000fd0080007800e4
:103f7400100020000100dd0000c0ea0000406200e3
:103f840080497800abc8bf000080fb004600de001b
:103f9400610060000004e0004d003200abc8bf00c7
:103fa4000004e00025003d0070a080007a0140007c
:103fb4001e0090006700b9000000410080007800f6
:103fc400acc8bf000080fb000000e9004380de00b5
:103fd4000082400070a080007a0140001e00900022
:103fe4006700b9000000410080007800acc8bf0041
:103ff4000080fb000000e9004380de0000804000f8
:104004001040780080417800acc8bf000080fb00fd
:104014000000e90082002000110009000200d8001d
:104024008000fd0080007800100020000100dd0009
:1040340000c07100004a78002500370070a080009d
:104044007a0140001e0090006700b90000004100a2
:1040540080007800acc8bf000080fb000000e900cd
:104064004380de008081400070a080007a0140001f
:104074001e0090006700b900000041008000780035
:10408400acc8bf000080fb000000e9004380de00f4
:10409400008040001040780000427800acc8bf00a7
:1040a4000080fb000000e9008200200011000900ec
:1040b4000200d8008000fd0080007800100020007d
:1040c4000100dd0000c0ea00004062008049780081
:1040d4001e0090000000e800100798001e009000e9
:1040e400eb0f5000d1fe340000c4b3004dfd0700b7
:1040f4000080fa00000006000400fa00a9c8bf000e
:104104000080fb004400de00610060000004e00069
:1041140087003200aac8bf000080fb006100600075
:104124000004e0001b003200aec8bf00e14f5000a5
:1041340006003a00c08a2000000f780071a08000b9
:104144001e0078001000780080089800aec8bf00f8
:10415400e24f500006003a00c08a2000000f7800a9
:1041640071a080001e00780010007800900898006c
:10417400aec8bf00e34f500006003a00c08a2000da
:10418400000f780071a080001e00780010007800f5
:10419400a0089800aac8bf000080fb000000d1005e
:1041a400610060000004e0000c003200c08a2000be
:1041b400000f780071a080001e00780010007800c5
:1041c400b0089800e08a2000000f780071a08000f9
:1041d4001e00780010007800c0089800aac8bf002c
:1041e4000080fb004200de00610060000004e0008b
:1041f40007003200c08a2000000f78001e007800fb
:1042040010007800704a88001000200020498800bf
:10421400aac8bf000080fb004300de00610060000c
:104224000004e000120032000000eb0010079800c8
:104234000c00370072a080009e0190001e009000c8
:10424400e8004000408a2000008040009040780050
:1042540002804100014878001e0090000000e80040
:10426400100798001e009000e50f5000f1ff360083
:10427400aac8bf000080fb004400de0061006000ab
:104284000004e0001600320010002000100798001f
:1042940010003700adc8bf008080fb001e009000f6
:1042a400808f500008003a0072a080001e00900029
:1042b4000000e900c18a200091407800000041001c
:1042c4006a004000014878001e0090000000e800e9
:1042d400100798001e009000e40f5000edff360018
:1042e400aac8bf000080fb004600de006100600039
:1042f4000004e0000300320071a08000acc8bf00dd
:10430400e0489800aac8bf000004e000b3003d00e4
:10431400c08a2000000f78001e007800100078008a
:10432400604a88001000200010498800ab00370064
:104334000000eb0010079800a50037001e00900055
:104344004300de0080007800808a20000080400066
:10435400104078008080fb001e0090006700600021
:104364000088de00610060000004e0009500320077
:10437400abc8bf000080fb00610060000004e000e7
:104384000700320071a080001e009000c28a200045
:104394001241780000804000e00cb0000248780030
:1043a400abc8bf000080fb004200de00610060007b
:1043b4000004e00034003200aec8bf00e14f5000fa
:1043c4000a003a00c08a2000000f780072a0800022
:1043d4009e0090001e007800900178004308dd00e4
:1043e40002004000a00db00003087800aec8bf0072
:1043f400e24f50000a003a00c08a2000000f780003
:1044040072a080009e0090001e0078009001780049
:104414004308dd0002004000c00db000030878002e
:10442400aec8bf00e34f50000a003a00c08a200023
:10443400000f780072a080009e0090001e0078009b
:10444400900178004308dd0002004000e00db00058
:1044540003087800aec8bf00e44f50000a003a00d9
:10446400c08a2000000f780072a080009e00900097
:104474001e007800900178004308dd00020040002f
:10448400000eb00003087800abc8bf000080fb003a
:104494004300de00610060000004e0001a00320006
:1044a400aec8bf00e14f50000a003a00c08a2000a5
:1044b400000f780072a080009e0090001e0078001b
:1044c400900178004208dd0002004000a013b00013
:1044d40003087800aec8bf00e24f50000a003a005b
:1044e400c08a2000000f780072a080009e00900017
:1044f4001e007800900178004208dd0002004000b0
:10450400c013b00003087800abc8bf000080fb00f4
:104514004400de00610060000004e0001c00320082
:10452400aec8bf00e24f50000b003a00c08a200022
:10453400000f780073a080009e0090001e00780099
:1045440010007800004178004208dd0003004000bc
:104554003009b00002487800aec8bf00e44f5000f4
:104564000b003a00c08a2000000f780073a080007e
:104574009e0090001e007800100078000041780032
:104584004208dd00030040005009b00002487800f2
:10459400abc8bf000080fb004600de006100600085
:1045a4000004e0000700320071a080001e009000ab
:1045b400c28a20001241780000804000200cb00024
:1045c400024878001e0090000000e80010079800e0
:1045d4001e009000eb0f500058ff360080c4b3005b
:1045e40010fc07000080fa00000006000000fa003a
:1045f40000c6b3000bfc07001000200040498800ef
:104604000080fa00000006000000fa0000c7b300b2
:1046140004fc070010002000504988000080fa00c4
:10462400000006000400fa00818a2000914078000e
:104634000e80e80001487800918a200091407800bb
:104644000e80e800114098000e80e800262c070038
:10465400000f780080c0b300f2fb07000080fa006e
:10466400000006000400fa00818a200091407800ce
:104674000e80e80001487800918a2000914078007b
:104684000e80e800114098000e80e800642c0700ba
:10469400000f780000c1b300e2fb07000080fa00bd
:1046a400000006002600fa000000eb00000f78006e
:1046b4000a0037001e0178001e007800e300400065
:1046c400408a200000804000904078006400470049
:1046d40000004100014878001e0fe800000220009d
:1046e4009e0f1000f3ff3400640047009a2c07006b
:1046f4001007980000c3b300cafb07000080fa004b
:10470400000006000600fa00640047001c2c0700a5
:10471400100798001e0090000000e00044003a00da
:1047240010002000404888006400470010409000ba
:104734000080fb004400de00610060000004e00033
:104744000800320017c8bf00e1cfb3000140600089
:1047540017e8b700c0002000450d0700c000200086
:10476400930c07000000eb00000f78002d003700c9
:104774001e007800c380de00640047000080400013
:10478400104078008080fb001e007800820020002a
:10479400811f7800110009000200d8000001780090
:1047a40001007800cf0078000088de00610060001e
:1047b4000004e0001a0032001e00e8004382de001c
:1047c4001e00e800c380de007081200000804000ed
:1047d40010407800804178001e00e800820020002c
:1047e400110009000200d8008000fd00800078005c
:1047f400100020000100dd0000c0ea0000c06100dc
:104804008040780070812000000042000148780058
:104814001e007800160d07001e007800640c0700c7
:104824001e0fe800b00020009e0f1000d0ff3400df
:104834001e0090000000e000b3ff32000000eb0017
:104844000080fa00000006000600fa006400470039
:10485400192c0700100798001e0090000000e000cb
:104864003a003a00100020004048880064004700e5
:10487400104090000080fb004400de0061006000f6
:104884000004e0000300320017c8bf000004a000c9
:1048940017e8b7000000eb00000f7800280037008d
:1048a4001e007800c380de006400470000804000e2
:1048b400104078008080fb001e00780082002000f9
:1048c400811f7800110009000200d800000178005f
:1048d40001007800cf0078000088de0061006000ed
:1048e4000004e000150032001e00e8004382de00f0
:1048f4001e00e800c380de007081200000804000bc
:1049040010407800804178001e00e80082002000fa
:10491400110009000200d8008000fd00800078002a
:10492400100020000100dd0000c07100804078000c
:104934007081200000004200014878001e0fe8004a
:10494400b00020009e0f1000d5ff34001e00900020
:104954000000e000bdff32000000eb000080fa0020
:10496400000006002c00fa000000eb00100798007d
:104974006a004700242c0700400798004e0090006e
:104984000000e00000023a001000200050488800b7
:104994000000eb0030079800f80137003e0090005b
:1049a4004380de00800078006a0047000100400078
:1049b4000000e800104078008080fb003e0090007a
:1049c40082002000811f7800110009000200d80035
:1049d4000001780001007800cf0078000088de0034
:1049e400610060000004e000e10132003e0090003c
:1049f400ec0f500003013a006a0047003040900079
:104a0400e14f500051003a000000eb0020079800ed
:104a14000c0037002e0190002e009000e5004000ad
:104a24006a004700008040009040780060842000c5
:104a340000004100014878002e0090000000e800ca
:104a4400200798002e009000ec0f5000f1ff340076
:104a54000000eb00200798002800370046c8bf007c
:104a64000004e000220032002e009000e10f50000c
:104a74000d003a002e009000000040000001780074
:104a84002e0090000000400080007800808220000a
:104a940000804000904078005085200000004100d4
:104aa40001487800120037002e019000ae009000fb
:104ab4006084200000804000104078000080fb00eb
:104ac4008000e900a0592100008040009040780057
:104ad400508520000000410001487800ae0090009d
:104ae40050852000008040001040780085ebb7001e
:104af4002e0090000000e800200798002e0090008f
:104b0400e10f5000d5ff34000000eb00000f7800e7
:104b14000b0037001e0178001e00780000004000e2
:104b2400800078005085200000804000904078008c
:104b34009080200000004100014878001e0fe8002a
:104b4400100020009e0f1000f2ff34006a0047009e
:104b5400b040900000c2b30080cf5000a4003a00df
:104b64000000eb00100798008d0037000000eb00f8
:104b740020079800840037001e00900000004000c9
:104b8400ea004700808040002e0090004380de0051
:104b94000080400065004000104078008080fb00e9
:104ba4002e00900082002000811f7800110009006f
:104bb4000200d8000001780001007800cf007800de
:104bc4000088de00610060000004e000380032006c
:104bd4001e00900000004000800078002e0090002d
:104be4004380de0080804000608520000082400019
:104bf4001e00900000004000800078002e0090000d
:104c04004380de00808040006085200000804000fa
:104c140010407800804178002e009000820020002f
:104c2400110009000200d8008000fd008000780017
:104c3400100020000100dd0000c07100004a78006f
:104c44001e00900000004000800078002e009000bc
:104c54004380de00808040005085200000824000b8
:104c64001e00900000004000800078002e0090009c
:104c74004380de008080400050852000008040009a
:104c840010407800804178002e00900082002000bf
:104c9400110009000200d8008000fd0080007800a7
:104ca400100020000100dd0000c07100004a7800ff
:104cb4001e00900000004000ea0047008080400091
:104cc4002e0090004380de0000804000660040001b
:104cd400104078008080fb002e00900082002000ad
:104ce400811f7800110009000200d800000178003b
:104cf40001007800cf0078000088de0061006000c9
:104d04000004e0001d0032001e009000000040007e
:104d1400800078002e0090004380de0080804000f8
:104d240050852000008240001e00900000004000da
:104d3400800078002e0090004380de0080804000d8
:104d440050852000008040001040780080417800a9
:104d54002e00900082002000110009000200d800fb
:104d64008000fd0080007800100020000100dd00bc
:104d740000c0ea0000c06100004a78002e009000e4
:104d84000000e800200798002e009000e70f500074
:104d940079ff34001e0090000000e800100798001e
:104da4001e009000e10f500070ff34000000eb0083
:104db400000f78000b0037001e0178001e007800f9
:104dc40000004000800078005085200000804000f2
:104dd4009040780090802000000041000148780055
:104de4001e0fe800100020009e0f1000f2ff340098
:104df4003e0090004c0b07003e009000970d07000a
:104e0400db0037006a00470040409000e14f50004b
:104e14003a003a000000eb00200798000c0037002d
:104e24002e0190002e009000e50040006a0047002b
:104e34000080400090407800608420000000410021
:104e4400014878002e0090000000e8002007980038
:104e54002e009000ec0f5000f1ff340010002000f1
:104e64002007980018003700ae00900060842000ee
:104e740000804000104078000004e0000f00320081
:104e84002e009000000040000081e800ae00900079
:104e94006084200000804000104078000080fb0007
:104ea4008000e900405921000080400090407800d3
:104eb4005085200000004100014878002e00900039
:104ec4000000e800200798002e009000ec0f50002e
:104ed400e5ff34003e0190003e00900000004000d9
:104ee400e40040005085200000804000904078009d
:104ef400b080200000004100014878006a004700ab
:104f0400c040900000c2b30080cf500094003a002b
:104f14000000eb0020079800840037003e0090005a
:104f240000004000ea004700808040002e0090000e
:104f34004380de000080400069004000104078009b
:104f44008080fb002e00900082002000811f7800ea
:104f5400110009000200d800000178000100780067
:104f6400cf0078000088de00610060000004e000eb
:104f74001c0032003e0090000000400080007800d9
:104f84002e0090004380de00808040009085200049
:104f9400008240003e009000000040008000780045
:104fa4002e0090004380de00808040009085200029
:104fb4000080400010407800804178002e0090006e
:104fc40082002000110009000200d8008000fd00ca
:104fd40080007800100020000100dd0000c0710096
:104fe400004a78003e00900000004000ea004700bc
:104ff400808040002e0090004380de00008040004e
:105004006a004000104078008080fb002e00900071
:1050140082002000811f7800110009000200d800de
:105024000001780001007800cf0078000088de00dd
:10503400610060000004e000390032003e0090008e
:1050440000004000800078002e0090004380de00c5
:105054008080400090852000008240003e00900047
:1050640000004000800078002e0090004380de00a5
:10507400808040009085200000804000104078002f
:10508400804178002e009000820020001100090069
:105094000200d8008000fd0080007800100020008d
:1050a4000100dd0000c0ea0000c06100004a780091
:1050b4003e00900000004000800078002e00900028
:1050c4004380de0080804000a085200000824000f4
:1050d4003e00900000004000800078002e00900008
:1050e4004380de0080804000a085200000804000d6
:1050f40010407800804178002e009000820020004b
:10510400110009000200d8008000fd008000780032
:10511400100020000100dd0000c07100004a78008a
:105124002e0090000000e800200798002e00900058
:10513400e70f500079ff34003e0190003e009000dc
:1051440000004000e4004000508520000080400042
:1051540090407800b08020000000410001487800b1
:105164003e009000700a07003e009000bb0c070050
:105174003e0090000000e800300798003e009000d8
:10518400ec0f500005fe34004e0090000000e000db
:10519400f7fd32000000eb000080fa00000006007a
:1051a4000000fa000000eb006049880030c0b30042
:1051b40003e8b7000000eb000080fa0000000600de
:1051c4000200fa00a04880000000e00003003a005a
:1051d400b04880000000e000030032000000eb0053
:1051e400000f7800060037000000eb0040498800fb
:1051f400c0c0b30003e8b7000000eb00000f780064
:105204001e0078000080fa00000006000200fa0088
:10521400a04880000000e00003003a00b04880008d
:105224000000e000030032000000eb00000f7800f3
:10523400060037000000eb0050498800e0c0b300ce
:1052440003e8b7000000eb00000f78001e007800b0
:105254000080fa00000006000200fa00a048800066
:105264000000e00003003a00b04880000000e000c5
:10527400030032000000eb00000f78000600370046
:105284000000eb00f048880060c0b30003e8b700fa
:105294000000eb00000f78001e0078000080fa0088
:1052a400000006000200fa00a04880000000e000b0
:1052b40003003a00b04880000000e0000300320020
:1052c4000000eb00000f7800060037000000eb0040
:1052d40070498800b0c0b30003e8b7000000eb00d9
:1052e400000f78001e0078000080fa00000006001d
:1052f4000200fa00a04880000000e00003003a0029
:10530400b04880000000e000030032000000eb0021
:10531400000f7800060037000000eb008049880089
:1053240090c0b30003e8b7000000eb00000f780062
:105334001e0078000080fa00000006000200fa0057
:10534400004f7800c04a80000000e0001d003200d9
:10535400c04a80000000d100610060000004e00049
:105364000400320008c8bf0001c2b300014070004d
:1053740008e8b700c04a80004200de006100600017
:105384000004e0000300320008c8bf000014a000bd
:1053940008e8b700c04a80004300de0061006000f6
:1053a4000004e0000300320008c8bf000024a0008d
:1053b40008e8b70010002000f04888000000eb0067
:1053c400c04a88001e04e00003003200e0c0b300bd
:1053d4009e4f10000500360008c8bf000004a0005e
:1053e40008e8b70010002000f0488800004a800058
:1053f4000000e00007003a0000002800004a88008e
:1054040008c8bf000044a00008e8b700100020004e
:10541400f04888000000eb000080fa00000006005d
:105424000800fa00a04880000000e00003003a00f1
:10543400b04880000000e000030032000000eb00f0
:1054440010079800560037000000eb000049880060
:10545400904980000000d100610060000004e00079
:105464000300320010002000a0488800cbf707009a
:10547400a4c8bf007f4f6000c04a80000000e00065
:105484000b003a00404a80000000e00008003a00a7
:10549400004a80000000e000050032001e04e00025
:1054a40003003200e1c0b3009ecf100002003600ba
:1054b4001e407800a1ff07001e80fb006101b900b7
:1054c4000080eb008080eb000201400083814800f3
:1054d4002207980033079800d00020000100200024
:1054e4002e019000be019000800f5100818f590061
:1054f40029003e002e009000be00900000600100d4
:105504000d0037000e00370011003700120037007d
:10551400160037000c00370016003700170037005c
:10552400180037001c0037001b0037001700370035
:1055340019003700170037003afc0700160037003f
:1055440048fc07001400370056fc0700120037001f
:105554003cf8070010003700a5c8bf000080fb001e
:105564004300de0042f807000b00370046f807004e
:10557400090037004bf807000700370015f907004a
:1055840005003700dcfa07000300370017fc0700aa
:10559400010037001cfc07008000eb001107980095
:1055a4001e0090000080fa00000006000000fa00cf
:1055b40054fc0700a4fc0700eafc07000080fa0082
:1055c400000006000200fa000000eb00004b880017
:1055d400401622009040780020c8b30080cf5000cd
:1055e40002003a0040062000a04a8800e15d210044
:1055f40000ce280015000900b05878006101b10000
:105604006001b10050012000004b88000000eb0055
:10561400000f7800130037009e0078004016220027
:10562400614078000081fb00004b8000800078001e
:10563400e05d21000080400080007800821f780037
:1056440090cc2800801f780001007800b7eb070099
:10565400e4875700004b800063004000004b880043
:105664001e0fe8001e007800a14a80008100e800b7
:10567400810f5000e8ff39000000eb00a04a8800c9
:10568400e05d2100a04388009580a8000080fa0016
:10569400000006000200fa00e15d210060cf28004e
:1056a40013000900b05878004101b1004001b10075
:1056b40030012000004b88000000eb00000f780050
:1056c400130037009e007800a0d4210061407800c8
:1056d4000081fb00004b800080007800e05d210029
:1056e4000080400080007800821f780090cc280061
:1056f400801f7800010078008ceb0700e4875700d6
:10570400004b800063004000004b88001e0fe8003f
:105714009e007800404b8000808f5000e9ff3900e4
:10572400e05d2100a04388009580a8000080fa0075
:10573400000006000000fa00b04a80000000e0000b
:105744001f003200b04a80000000d10061006000f8
:105754000004e0000400320008c8bf0001cab3001e
:105764000140700008e8b700b04a80004200de0043
:10577400610060000004e0000400320008c8bf00bb
:1057840021c8b3000140700008e8b700b04a8000a7
:105794004300de00610060000004e0000400320009
:1057a40008c8bf0041c8b3000140700008e8b70052
:1057b40010002000f04888000000eb00b04a880088
:1057c400e04980000000e00003003200d04980007e
:1057d4000000e0000b003a0000002800d0498800d7
:1057e400d0498000e0498800818020009140780001
:1057f40000c9b30000c0700008e8b7001000200022
:10580400f0488800304a80000000e00009003200bf
:105814000000eb00304a880081802000914078002d
:1058240080c8b30000c0700008e8b7001000200072
:10583400f0488800804880000000e0001300320037
:10584400e04880000000e000100032006180200089
:105854009140780007c8bf0080cf50000b00320091
:1058640000002800d0498800818020009140780001
:1058740010c8b30000c0700008e8b7001000200092
:10588400f04888000000eb00e04888008048800071
:105894000000e00013003a00e04880000000e0004f
:1058a40003003a00d04880000000e0000d00320000
:1058b40000002800d04988008180200091407800b1
:1058c40010c8b30000c0700008e8b7001000200042
:1058d400f04888000000eb00d0488800d0488000e1
:1058e400e04888000080fa00000006000600fa0084
:1058f400618020009140780000c8b30080cf500040
:10590400ef003a00204a80000000e00086003a00e0
:1059140010002000204a88000000eb00505a880044
:105924000000eb002007980014003700ae0190003f
:105934002e0190002e009000e3004000401622004b
:105944006140780000c0ea00804078005085200063
:10595400000041000148780050852000000041000b
:105964009040780080822000008041000148780047
:105974002e0090000000e800200798002e00900000
:10598400fb0f5000e9ff34000000eb0020079800f3
:105994000d0037002e0190002e0090000000400002
:1059a40080007800508520000080400090407800fe
:1059b4009080200000004100014878002e009000f3
:1059c4000000e800200798002e009000e10f50002e
:1059d400f0ff34000000eb00200798000d003700b2
:1059e4002e0190002e00900000004000e4004000d2
:1059f400508520000080400090407800b080200056
:105a040000004100014878002e0090000000e800ea
:105a1400200798002e009000eb0f5000f0ff340098
:105a24000000eb00200798001b003700129580004f
:105a34002e00900000004000800178002e009000ad
:105a440000004000e400400040162200e1407800dd
:105a540003004100e002b000014878001395800083
:105a64002e009000000040000001e8002e0090008d
:105a740000004000e300400040162200e1407800ae
:105a840002804100e002b000014878002e0090003e
:105a94000000e800200798002e009000e10f50005d
:105aa400e2ff34000000eb00200798001b003700e1
:105ab400149580002e0190002e00900000004000fc
